:0400000081EF18F084
:022500000000D9
:10300800400C400C400C400C400C400C400C400C58
:10301800400C400C400C400C400C400C400C400C48
:10302800400C400C400C400C400C400C400C400C38
:10303800400C400C400C400C400C400C400C1B1049
:10304800400C400C400C400C400C400C400C400C18
:10305800400C400C400C400C400C400C400C400C08
:10306800400C400C400C400C400C400C400C400CF8
:10307800400C400C400C400C400C400C400C400CE8
:10308800400C400C400C400C400C400C400C400CD8
:10309800400C400C400C400C400C400C400C400CC8
:1030A800400C400C400C400C400C400C400C400CB8
:1030B800400C400C400C400C400C400C400C400CA8
:1030C800400C400C400C400C400C400C400C400C98
:1030D800400C400C400C400C400C400C400C400C88
:1030E800400C400C400C400C400C400C400C400C78
:1030F800400C400C400C400CFF0023EF20F0046E05
:10310800F2EF18F001C502F5010E036E022A8FEFE7
:1031180018F0D8900336022E8DEF18F00350FF0AEE
:103128000401041717EF19F001C502F5010E036E2B
:10313800022AA1EF18F0D8900336022E9FEF18F05C
:103148000350FF0A04010C1717EF19F001C502F527
:10315800010E036E022AB3EF18F0D8900336022E40
:10316800B1EF18F00350FF0A0401141717EF19F014
:1031780001C502F5010E036E022AC5EF18F0D890BA
:103188000336022EC3EF18F00350FF0A04011C1780
:1031980017EF19F001C502F5010E036E022AD7EFE9
:1031A80018F0D8900336022ED5EF18F00350FF0A16
:1031B8000401241717EF19F001C502F5010E036E7B
:1031C800022AE9EF18F0D8900336022EE7EF18F03C
:1031D8000350FF0A04012C1717EF19F00450026E70
:1031E800036A0350000AD8B4FCEF18F017EF19F07F
:1031F8000250410AD8B486EF18F0030AD8B498EF01
:1032080018F0010AD8B4AAEF18F0070AD8B4BCEF2E
:1032180018F0010AD8B4CEEF18F0030AD8B4E0EFDA
:1032280018F017EF19F01200046E87EF19F001C5B6
:1032380002F5010E036E022A24EF19F0D890033626
:10324800022E22EF19F00350FF0A04010317ACEF16
:1032580019F001C502F5010E036E022A36EF19F0C6
:10326800D8900336022E34EF19F00350FF0A0401F8
:103278000B17ACEF19F001C502F5010E036E022A17
:1032880048EF19F0D8900336022E46EF19F0035094
:10329800FF0A04011317ACEF19F001C502F5010E7E
:1032A800036E022A5AEF19F0D8900336022E58EF0F
:1032B80019F00350FF0A04011B17ACEF19F001C500
:1032C80002F5010E036E022A6CEF19F0D89003364E
:1032D800022E6AEF19F00350FF0A04012317ACEF1E
:1032E80019F001C502F5010E036E022A7EEF19F0EE
:1032F800D8900336022E7CEF19F00350FF0A040120
:103308002B17ACEF19F00450026E036A0350000A41
:10331800D8B491EF19F0ACEF19F00250410AD8B4C3
:103328001BEF19F0030AD8B42DEF19F0010AD8B42D
:103338003FEF19F0070AD8B451EF19F0010AD8B4D1
:1033480063EF19F0030AD8B475EF19F0ACEF19F070
:103358001200046E1CEF1AF001C502F5010E036E8F
:10336800022AB9EF19F0D8900336022EB7EF19F0F8
:103378000350FF0A0401021741EF1AF001C502F5D4
:10338800010E036E022ACBEF19F0D8900336022EF5
:10339800C9EF19F00350FF0A04010A1741EF1AF0A8
:1033A80001C502F5010E036E022ADDEF19F0D8906F
:1033B8000336022EDBEF19F00350FF0A040112173F
:1033C80041EF1AF001C502F5010E036E022AEFEF74
:1033D80019F0D8900336022EEDEF19F00350FF0ACA
:1033E80004011A1741EF1AF001C502F5010E036E28
:1033F800022A01EF1AF0D8900336022EFFEF19F0D7
:103408000350FF0A0401221741EF1AF001C502F523
:10341800010E036E022A13EF1AF0D8900336022E1B
:1034280011EF1AF00350FF0A04012A1741EF1AF0AE
:103438000450026E036A0350000AD8B426EF1AF04B
:1034480041EF1AF00250410AD8B4B0EF19F0030A5C
:10345800D8B4C2EF19F0010AD8B4D4EF19F0070AAA
:10346800D8B4E6EF19F0010AD8B4F8EF19F0030A56
:10347800D8B40AEF1AF041EF1AF01200046EB1EF57
:103488001AF001C502F5010E036E022A4EEF1AF07A
:10349800D8900336022E4CEF1AF00350FF0A0401AD
:1034A8000017D6EF1AF001C502F5010E036E022AC5
:1034B80060EF1AF0D8900336022E5EEF1AF0035030
:1034C800FF0A04010817D6EF1AF001C502F5010E2C
:1034D800036E022A72EF1AF0D8900336022E70EFAC
:1034E8001AF00350FF0A04011017D6EF1AF001C5AD
:1034F80002F5010E036E022A84EF1AF0D890033603
:10350800022E82EF1AF00350FF0A04011817D6EFB3
:103518001AF001C502F5010E036E022A96EF1AF0A1
:10352800D8900336022E94EF1AF00350FF0A0401D4
:103538002017D6EF1AF001C502F5010E036E022A14
:10354800A8EF1AF0D8900336022EA6EF1AF003500F
:10355800FF0A04012817D6EF1AF00450026E036A16
:103568000350000AD8B4BBEF1AF0D6EF1AF0025095
:10357800410AD8B445EF1AF0030AD8B457EF1AF045
:10358800010AD8B469EF1AF0070AD8B47BEF1AF029
:10359800010AD8B48DEF1AF0030AD8B49FEF1AF0D5
:1035A800D6EF1AF01200046E46EF1BF001C502F5C3
:1035B800010E036E022AE3EF1AF0D8900336022EAA
:1035C800E1EF1AF00350FF0A040101176BEF1BF03B
:1035D80001C502F5010E036E022AF5EF1AF0D89024
:1035E8000336022EF3EF1AF00350FF0A04010917FD
:1035F8006BEF1BF001C502F5010E036E022A07EFFF
:103608001BF0D8900336022E05EF1BF00350FF0A7B
:10361800040111176BEF1BF001C502F5010E036ED3
:10362800022A19EF1BF0D8900336022E17EF1BF071
:103638000350FF0A040119176BEF1BF001C502F5CF
:10364800010E036E022A2BEF1BF0D8900336022ED0
:1036580029EF1BF00350FF0A040121176BEF1BF041
:1036680001C502F5010E036E022A3DEF1BF0D8904A
:103678000336022E3BEF1BF00350FF0A0401291703
:103688006BEF1BF00450026E036A0350000AD8B4B3
:1036980050EF1BF06BEF1BF00250410AD8B4DAEF81
:1036A8001AF0030AD8B4ECEF1AF0010AD8B4FEEF06
:1036B8001AF0070AD8B410EF1BF0010AD8B422EFA9
:1036C8001BF0030AD8B434EF1BF06BEF1BF01200A9
:1036D800046ED5EF1BF001C502F5010E036E022A38
:1036E80078EF1BF0D8900336022E76EF1BF00350CC
:1036F80004010413FAEF1BF001C502F5010E036E75
:10370800022A89EF1BF0D8900336022E87EF1BF0B0
:10371800035004010C13FAEF1BF001C502F5010E6A
:10372800036E022A9AEF1BF0D8900336022E98EF08
:103738001BF0035004011413FAEF1BF001C502F546
:10374800010E036E022AABEF1BF0D8900336022E4F
:10375800A9EF1BF0035004011C13FAEF1BF001C57D
:1037680002F5010E036E022ABCEF1BF0D890033657
:10377800022EBAEF1BF0035004012413FAEF1BF0DA
:1037880001C502F5010E036E022ACDEF1BF0D89099
:103798000336022ECBEF1BF0035004012C13FAEF73
:1037A8001BF00450026E036A0350000AD8B4DFEF1E
:1037B8001BF0FAEF1BF00250410AD8B46FEF1BF070
:1037C800030AD8B480EF1BF0010AD8B491EF1BF0BC
:1037D800070AD8B4A2EF1BF0010AD8B4B3EF1BF064
:1037E800030AD8B4C4EF1BF0FAEF1BF01200046E02
:1037F80064EF1CF001C502F5010E036E022A07EF03
:103808001CF0D8900336022E05EF1CF0035004017B
:10381800031389EF1CF001C502F5010E036E022A9D
:1038280018EF1CF0D8900336022E16EF1CF0035048
:1038380004010B1389EF1CF001C502F5010E036E9C
:10384800022A29EF1CF0D8900336022E27EF1CF02D
:1038580003500401131389EF1CF001C502F5010E92
:10386800036E022A3AEF1CF0D8900336022E38EF86
:103878001CF0035004011B1389EF1CF001C502F56D
:10388800010E036E022A4BEF1CF0D8900336022E6D
:1038980049EF1CF003500401231389EF1CF001C504
:1038A80002F5010E036E022A5CEF1CF0D890033675
:1038B800022E5AEF1CF0035004012B1389EF1CF061
:1038C8000450026E036A0350000AD8B46EEF1CF06D
:1038D80089EF1CF00250410AD8B4FEEF1BF0030A2E
:1038E800D8B40FEF1CF0010AD8B420EF1CF0070A77
:1038F800D8B431EF1CF0010AD8B442EF1CF0030A27
:10390800D8B453EF1CF089EF1CF01200046EF3EFEB
:103918001CF001C502F5010E036E022A96EF1CF099
:10392800D8900336022E94EF1CF0035004010113C3
:1039380018EF1DF001C502F5010E036E022AA7EF6C
:103948001CF0D8900336022EA5EF1CF0035004019A
:10395800091318EF1DF001C502F5010E036E022AC6
:10396800B8EF1CF0D8900336022EB6EF1CF00350C7
:103978000401111318EF1DF001C502F5010E036EC5
:10398800022AC9EF1CF0D8900336022EC7EF1CF0AC
:1039980003500401191318EF1DF001C502F5010EBB
:1039A800036E022ADAEF1CF0D8900336022ED8EF05
:1039B8001CF003500401211318EF1DF001C502F596
:1039C800010E036E022AEBEF1CF0D8900336022E8C
:1039D800E9EF1CF003500401291318EF1DF00450FF
:1039E800026E036A0350000AD8B4FDEF1CF018EF0A
:1039F8001DF00250410AD8B48DEF1CF0030AD8B468
:103A08009EEF1CF0010AD8B4AFEF1CF0070AD8B437
:103A1800C0EF1CF0010AD8B4D1EF1CF0030AD8B4E7
:103A2800E2EF1CF018EF1DF01200046E82EF1DF09B
:103A380001C502F5010E036E022A25EF1DF0D8908C
:103A48000336022E23EF1DF00350FF0AC616A7EF18
:103A58001DF001C502F5010E036E022A36EF1DF0B6
:103A6800D8900336022E34EF1DF00350FF0AC71614
:103A7800A7EF1DF001C502F5010E036E022A47EFFC
:103A88001DF0D8900336022E45EF1DF00350FF0AB3
:103A9800C816A7EF1DF001C502F5010E036E022A34
:103AA80058EF1DF0D8900336022E56EF1DF0035044
:103AB800FF0AC916A7EF1DF001C502F5010E036E36
:103AC800022A69EF1DF0D8900336022E67EF1DF029
:103AD8000350FF0ACA16A7EF1DF001C502F5010E33
:103AE800036E022A7AEF1DF0D8900336022E78EF83
:103AF8001DF00350FF0ACB16A7EF1DF00450026E0D
:103B0800036A0350000AD8B48CEF1DF0A7EF1DF02C
:103B18000250410AD8B41CEF1DF0030AD8B42DEFA7
:103B28001DF0010AD8B43EEF1DF0070AD8B44FEFD4
:103B38001DF0010AD8B460EF1DF0030AD8B471EF84
:103B48001DF0A7EF1DF01200046E11EF1EF001C565
:103B580002F5010E036E022AB4EF1DF0D890033669
:103B6800022EB2EF1DF003500401021336EF1EF0CF
:103B780001C502F5010E036E022AC5EF1DF0D890AB
:103B88000336022EC3EF1DF0035004010A1336EF6B
:103B98001EF001C502F5010E036E022AD6EF1DF0D4
:103BA800D8900336022ED4EF1DF0035004011213EF
:103BB80036EF1EF001C502F5010E036E022AE7EF8B
:103BC8001DF0D8900336022EE5EF1DF003500401D6
:103BD8001A1336EF1EF001C502F5010E036E022A14
:103BE800F8EF1DF0D8900336022EF6EF1DF00350C3
:103BF8000401221336EF1EF001C502F5010E036E13
:103C0800022A09EF1EF0D8900336022E07EF1EF0A5
:103C1800035004012A1336EF1EF00450026E036AA3
:103C28000350000AD8B41BEF1EF036EF1EF0025006
:103C3800410AD8B4ABEF1DF0030AD8B4BCEF1DF0AD
:103C4800010AD8B4CDEF1DF0070AD8B4DEEF1DF095
:103C5800010AD8B4EFEF1DF0030AD8B400EF1EF044
:103C680036EF1EF01200046EA0EF1EF001C502F53B
:103C7800010E036E022A43EF1EF0D8900336022E7F
:103C880041EF1EF0035004010013C5EF1EF001C5FB
:103C980002F5010E036E022A54EF1EF0D890033687
:103CA800022E52EF1EF0035004010813C5EF1EF058
:103CB80001C502F5010E036E022A65EF1EF0D890C9
:103CC8000336022E63EF1EF0035004011013C5EFF4
:103CD8001EF001C502F5010E036E022A76EF1EF0F2
:103CE800D8900336022E74EF1EF003500401181307
:103CF800C5EF1EF001C502F5010E036E022A87EF1B
:103D08001EF0D8900336022E85EF1EF003500401F2
:103D18002013C5EF1EF001C502F5010E036E022A3D
:103D280098EF1EF0D8900336022E96EF1EF003503F
:103D380004012813C5EF1EF00450026E036A0350F5
:103D4800000AD8B4AAEF1EF0C5EF1EF00250410ACF
:103D5800D8B43AEF1EF0030AD8B44BEF1EF0010AAC
:103D6800D8B45CEF1EF0070AD8B46DEF1EF0010A54
:103D7800D8B47EEF1EF0030AD8B48FEF1EF0C5EF5B
:103D88001EF01200046E29EF1FF001C502F5010EA6
:103D9800036E022AD2EF1EF0D8900336022ED0EF1F
:103DA8001EF00350C6124EEF1FF001C502F5010EBA
:103DB800036E022AE2EF1EF0D8900336022EE0EFDF
:103DC8001EF00350C7124EEF1FF001C502F5010E99
:103DD800036E022AF2EF1EF0D8900336022EF0EF9F
:103DE8001EF00350C8124EEF1FF001C502F5010E78
:103DF800036E022A02EF1FF0D8900336022E00EF5E
:103E08001FF00350C9124EEF1FF001C502F5010E55
:103E1800036E022A12EF1FF0D8900336022E10EF1D
:103E28001FF00350CA124EEF1FF001C502F5010E34
:103E3800036E022A22EF1FF0D8900336022E20EFDD
:103E48001FF00350CB124EEF1FF00450026E036AAE
:103E58000350000AD8B433EF1FF04EEF1FF00250A2
:103E6800410AD8B4C9EF1EF0030AD8B4D9EF1EF03E
:103E7800010AD8B4E9EF1EF0070AD8B4F9EF1EF02A
:103E8800010AD8B409EF1FF0030AD8B419EF1FF0DC
:103E98004EEF1FF012000C6E0650D8B456EF1FF00C
:103EA80058EF1FF05FEF1FF005C501F50C50C6EC89
:103EB8001EF064EF1FF005C501F50C5019EC1DF05C
:103EC8000750D8B46AEF1FF06CEF1FF073EF1FF0C4
:103ED80005C501F50C5042EC1AF078EF1FF005C546
:103EE80001F50C5037EC1EF00850D8B47EEF1FF0E7
:103EF80080EF1FF087EF1FF005C501F50C508AEC25
:103F08001CF08CEF1FF005C501F50C50D7EC1AF02A
:103F18000950D8B492EF1FF094EF1FF09BEF1FF0F9
:103F280005C501F50C5083EC18F0A0EF1FF005C58E
:103F380001F50C506CEC1BF00A50D8B4A6EF1FF03A
:103F4800A8EF1FF0AFEF1FF005C501F50C50FBEC13
:103F58001BF0B4EF1FF005C501F50C5018EC19F073
:103F68000B50D8B4BAEF1FF0BCEF1FF0C3EF1FF02F
:103F780005C501F50C50ADEC19F0C8EF1FF005C5EB
:103F880001F50C50A8EC1DF01200056E05C504F5EE
:103F9800043A044603011B5104181F0B04181B6F35
:103FA80001B002D01A9902D003011A8902B002D0D6
:103FB8001B9902D003011B891B510318F00B03182E
:103FC8001B6FF00E1A1712003EEC20F000EC20F0E8
:103FD800010E016E000E026E0B0E036E020EC9EC8E
:103FE8001FF0F60E016EC20E2DEC20F012EC20F040
:103FF800FCEF1FF081EF18F0030E056E000E066E41
:10400800010E076E000E086E010E096E010E0A6E93
:10401800010E0B6E460E4FEC1FF01200D68AD68E9C
:10402800D68CB18EA18E0301658FD69E000E040139
:104038005F6F300E5E6F080E5D6FD68E1200040142
:10404800080E5D6F300E5E6F000E5F6F0001E8EFC7
:104058001FF0026E02C519F301C518F303011A8F88
:02406800120044
:10406C00C376C20E0301196FF60E186FB19E1100C4
:08407C00300E0001AD6F1200CF
:020000040030CA
:080000008CFD3FFF9FFFDFFFB5
:01000900FFF7
:00000001FF
