:04000000FEEFFFF020
:102500000053616C696461733A202000456E7472F7
:10251000616461733A20000018EC1EF0D4EC1CF0EA
:102520001FEC1DF0250E066E050E076E000E086EE0
:10253000B7EC1DF01D0E066E050E076E010E086E3F
:10254000B7EC1DF0010E046E010E61EC1DF00C0ED7
:10255000046E91EC1DF0000E0FEC1EF014EC1EF05A
:10256000000E0FEC1EF0010E046E020E61EC1DF069
:10257000010E046E91EC1DF0000E0FEC1EF014EC39
:102580001EF0000E0FEC1EF0000E166E000E156E03
:10259000000E196E000E186E000E176ECFA8D3EF46
:1025A00012F0D6EF12F0010ED7EF12F0000E1A6EF5
:1025B00017501A18D8B4DFEF12F0E1EF12F011EF54
:1025C00013F01A04D8A4E7EF12F0E9EF12F0F7EFD6
:1025D00012F0C396020E016E460EF5EC19F0010ED4
:1025E000156E010E186E010E196E03EF13F0C386FF
:1025F000020E016E460E0CEC16F0000E156E000E6B
:10260000186E000E196E150E066E050E076E020E80
:10261000086E180E096E050E0A6E020E0B6E7DEC2A
:102620001CF01AC517F5090E146E1E0E136EE40E7B
:10263000E82EFED7132EFCD7142EFAD700D0CEEFFB
:1026400012F0FEEFFFF0046E92EF13F001C502F5F9
:10265000010E036E022A2FEF13F0D8900336022EDC
:102660002DEF13F00350FF0A04010417B7EF13F026
:1026700001C502F5010E036E022A41EF13F0D89056
:102680000336022E3FEF13F00350FF0A04010C172C
:10269000B7EF13F001C502F5010E036E022A53EFE6
:1026A00013F0D8900336022E51EF13F00350FF0AB7
:1026B00004011417B7EF13F001C502F5010E036E04
:1026C000022A65EF13F0D8900336022E63EF13F061
:1026D0000350FF0A04011C17B7EF13F001C502F500
:1026E000010E036E022A77EF13F0D8900336022E04
:1026F00075EF13F00350FF0A04012417B7EF13F02E
:1027000001C502F5010E036E022A89EF13F0D8907D
:102710000336022E87EF13F00350FF0A04012C1733
:10272000B7EF13F00450026E036A0350000AD8B4E6
:102730009CEF13F0B7EF13F00250410AD8B426EF24
:1027400013F0030AD8B438EF13F0010AD8B44AEFF3
:1027500013F0070AD8B45CEF13F0010AD8B46EEF97
:1027600013F0030AD8B480EF13F0B7EF13F01200A0
:10277000046E27EF14F001C502F5010E036E022A64
:10278000C4EF13F0D8900336022EC2EF13F00350BB
:10279000FF0A040103174CEF14F001C502F5010E06
:1027A000036E022AD6EF13F0D8900336022ED4EF30
:1027B00013F00350FF0A04010B174CEF14F001C58E
:1027C00002F5010E036E022AE8EF13F0D8900336EB
:1027D000022EE6EF13F00350FF0A040113174CEF2B
:1027E00014F001C502F5010E036E022AFAEF13F090
:1027F000D8900336022EF8EF13F00350FF0A0401BD
:102800001B174CEF14F001C502F5010E036E022AEE
:102810000CEF14F0D8900336022E0AEF14F0035098
:10282000FF0A040123174CEF14F001C502F5010E55
:10283000036E022A1EEF14F0D8900336022E1CEF0E
:1028400014F00350FF0A04012B174CEF14F004504E
:10285000026E036A0350000AD8B431EF14F04CEF53
:1028600014F00250410AD8B4BBEF13F0030AD8B4F5
:10287000CDEF13F0010AD8B4DFEF13F0070AD8B494
:10288000F1EF13F0010AD8B403EF14F0030AD8B43F
:1028900015EF14F04CEF14F01200046EBCEF14F0BE
:1028A00001C502F5010E036E022A59EF14F0D8900B
:1028B0000336022E57EF14F00350FF0A04010217EB
:1028C000E1EF14F001C502F5010E036E022A6BEF71
:1028D00014F0D8900336022E69EF14F00350FF0A6B
:1028E00004010A17E1EF14F001C502F5010E036EB1
:1028F000022A7DEF14F0D8900336022E7BEF14F0FD
:102900000350FF0A04011217E1EF14F001C502F5AC
:10291000010E036E022A8FEF14F0D8900336022EB8
:102920008DEF14F00350FF0A04011A17E1EF14F0C1
:1029300001C502F5010E036E022AA1EF14F0D89032
:102940000336022E9FEF14F00350FF0A04012217F2
:10295000E1EF14F001C502F5010E036E022AB3EF98
:1029600014F0D8900336022EB1EF14F00350FF0A92
:1029700004012A17E1EF14F00450026E036A0350B9
:10298000000AD8B4C6EF14F0E1EF14F00250410A87
:10299000D8B450EF14F0030AD8B462EF14F0010A6F
:1029A000D8B474EF14F0070AD8B486EF14F0010A13
:1029B000D8B498EF14F0030AD8B4AAEF14F0E1EFFA
:1029C00014F01200046E51EF15F001C502F5010E6E
:1029D000036E022AEEEF14F0D8900336022EECEFCD
:1029E00014F00350FF0A0401001776EF15F001C53B
:1029F00002F5010E036E022A00EF15F0D89003369F
:102A0000022EFEEF14F00350FF0A0401081776EFC0
:102A100015F001C502F5010E036E022A12EF15F042
:102A2000D8900336022E10EF15F00350FF0A040170
:102A3000101776EF15F001C502F5010E036E022A9C
:102A400024EF15F0D8900336022E22EF15F0035034
:102A5000FF0A0401181776EF15F001C502F5010E03
:102A6000036E022A36EF15F0D8900336022E34EFAB
:102A700015F00350FF0A0401201776EF15F001C589
:102A800002F5010E036E022A48EF15F0D8900336C6
:102A9000022E46EF15F00350FF0A0401281776EFC7
:102AA00015F00450026E036A0350000AD8B45BEFBD
:102AB00015F076EF15F00250410AD8B4E5EF14F0A6
:102AC000030AD8B4F7EF14F0010AD8B409EF15F0EF
:102AD000070AD8B41BEF15F0010AD8B42DEF15F092
:102AE000030AD8B43FEF15F076EF15F01200046E2C
:102AF000E6EF15F001C502F5010E036E022A83EF21
:102B000015F0D8900336022E81EF15F00350FF0A1E
:102B1000040101170BEF16F001C502F5010E036E5B
:102B2000022A95EF15F0D8900336022E93EF15F098
:102B30000350FF0A040109170BEF16F001C502F557
:102B4000010E036E022AA7EF15F0D8900336022E6D
:102B5000A5EF15F00350FF0A040111170BEF16F053
:102B600001C502F5010E036E022AB9EF15F0D890E7
:102B70000336022EB7EF15F00350FF0A04011917B0
:102B80000BEF16F001C502F5010E036E022ACBEF22
:102B900015F0D8900336022EC9EF15F00350FF0A46
:102BA000040121170BEF16F001C502F5010E036EAB
:102BB000022ADDEF15F0D8900336022EDBEF15F078
:102BC0000350FF0A040129170BEF16F00450026EA0
:102BD000036A0350000AD8B4F0EF15F00BEF16F0BB
:102BE0000250410AD8B47AEF15F0030AD8B48CEF3A
:102BF00015F0010AD8B49EEF15F0070AD8B4B0EF6B
:102C000015F0010AD8B4C2EF15F0030AD8B4D4EF16
:102C100015F00BEF16F01200046E75EF16F001C5FB
:102C200002F5010E036E022A18EF16F0D890033653
:102C3000022E16EF16F00350FF0ABE169AEF16F09A
:102C400001C502F5010E036E022A29EF16F0D89095
:102C50000336022E27EF16F00350FF0ABF169AEF35
:102C600016F001C502F5010E036E022A3AEF16F0C6
:102C7000D8900336022E38EF16F00350FF0AC01624
:102C80009AEF16F001C502F5010E036E022A4BEF12
:102C900016F0D8900336022E49EF16F00350FF0AC3
:102CA000C1169AEF16F001C502F5010E036E022A55
:102CB0005CEF16F0D8900336022E5AEF16F0035050
:102CC000FF0AC2169AEF16F001C502F5010E036E57
:102CD000022A6DEF16F0D8900336022E6BEF16F035
:102CE0000350FF0AC3169AEF16F00450026E036AEF
:102CF0000350000AD8B47FEF16F09AEF16F0025096
:102D0000410AD8B40FEF16F0030AD8B420EF16F03A
:102D1000010AD8B431EF16F0070AD8B442EF16F022
:102D2000010AD8B453EF16F0030AD8B464EF16F0D2
:102D30009AEF16F01200046E04EF17F001C502F5C9
:102D4000010E036E022AA7EF16F0D8900336022E6A
:102D5000A5EF16F003500401041329EF17F001C585
:102D600002F5010E036E022AB8EF16F0D890033672
:102D7000022EB6EF16F0035004010C1329EF17F0E2
:102D800001C502F5010E036E022AC9EF16F0D890B4
:102D90000336022EC7EF16F003500401141329EF77
:102DA00017F001C502F5010E036E022ADAEF16F0E4
:102DB000D8900336022ED8EF16F0035004011C13EE
:102DC00029EF17F001C502F5010E036E022AEBEFA1
:102DD00016F0D8900336022EE9EF16F003500401E6
:102DE000241329EF17F001C502F5010E036E022A24
:102DF000FCEF16F0D8900336022EFAEF16F00350CF
:102E000004012C1329EF17F00450026E036A0350DB
:102E1000000AD8B40EEF17F029EF17F00250410A5C
:102E2000D8B49EEF16F0030AD8B4AFEF16F0010A3B
:102E3000D8B4C0EF16F0070AD8B4D1EF16F0010AE3
:102E4000D8B4E2EF16F0030AD8B4F3EF16F029EF86
:102E500017F01200046E93EF17F001C502F5010E92
:102E6000036E022A36EF17F0D8900336022E34EFA5
:102E700017F0035004010313B8EF17F001C502F572
:102E8000010E036E022A47EF17F0D8900336022E88
:102E900045EF17F0035004010B13B8EF17F001C50D
:102EA00002F5010E036E022A58EF17F0D890033690
:102EB000022E56EF17F0035004011313B8EF17F06A
:102EC00001C502F5010E036E022A69EF17F0D890D2
:102ED0000336022E67EF17F0035004011B13B8EFFF
:102EE00017F001C502F5010E036E022A7AEF17F002
:102EF000D8900336022E78EF17F003500401231305
:102F0000B8EF17F001C502F5010E036E022A8BEF30
:102F100017F0D8900336022E89EF17F00350040102
:102F20002B13B8EF17F00450026E036A0350000A27
:102F3000D8B49DEF17F0B8EF17F00250410AD8B49B
:102F40002DEF17F0030AD8B43EEF17F0010AD8B4FA
:102F50004FEF17F0070AD8B460EF17F0010AD8B4A2
:102F600071EF17F0030AD8B482EF17F0B8EF17F03B
:102F70001200046E22EF18F001C502F5010E036E77
:102F8000022AC5EF17F0D8900336022EC3EF17F0D0
:102F900003500401011347EF18F001C502F5010EBB
:102FA000036E022AD6EF17F0D8900336022ED4EF24
:102FB00017F003500401091347EF18F001C502F59B
:102FC000010E036E022AE7EF17F0D8900336022EA7
:102FD000E5EF17F003500401111347EF18F001C596
:102FE00002F5010E036E022AF8EF17F0D8900336AF
:102FF000022EF6EF17F003500401191347EF18F0F3
:1030000001C502F5010E036E022A09EF18F0D890EF
:103010000336022E07EF18F003500401211347EF87
:1030200018F001C502F5010E036E022A1AEF18F01E
:10303000D8900336022E18EF18F00350040129131C
:1030400047EF18F00450026E036A0350000AD8B428
:103050002CEF18F047EF18F00250410AD8B4BCEF3B
:1030600017F0030AD8B4CDEF17F0010AD8B4DEEF99
:1030700017F0070AD8B4EFEF17F0010AD8B400EF41
:1030800018F0030AD8B411EF18F047EF18F0120047
:10309000046EB1EF18F001C502F5010E036E022AAD
:1030A00054EF18F0D8900336022E52EF18F0035068
:1030B000FF0AC616D6EF18F001C502F5010E036E21
:1030C000022A65EF18F0D8900336022E63EF18F04D
:1030D0000350FF0AC716D6EF18F001C502F5010E1E
:1030E000036E022A76EF18F0D8900336022E74EFA2
:1030F00018F00350FF0AC816D6EF18F001C502F504
:10310000010E036E022A87EF18F0D8900336022EC4
:1031100085EF18F00350FF0AC916D6EF18F001C565
:1031200002F5010E036E022A98EF18F0D8900336CC
:10313000022E96EF18F00350FF0ACA16D6EF18F0C9
:1031400001C502F5010E036E022AA9EF18F0D8900E
:103150000336022EA7EF18F00350FF0ACB16D6EF66
:1031600018F00450026E036A0350000AD8B4BBEF93
:1031700018F0D6EF18F00250410AD8B44BEF18F00F
:10318000030AD8B45CEF18F0010AD8B46DEF18F058
:10319000070AD8B47EEF18F0010AD8B48FEF18F000
:1031A000030AD8B4A0EF18F0D6EF18F01200046E9E
:1031B00040EF19F001C502F5010E036E022AE3EF9C
:1031C00018F0D8900336022EE1EF18F003500401F6
:1031D000021365EF19F001C502F5010E036E022A14
:1031E000F4EF18F0D8900336022EF2EF18F00350E7
:1031F00004010A1365EF19F001C502F5010E036E13
:10320000022A05EF19F0D8900336022E03EF19F0C9
:1032100003500401121365EF19F001C502F5010E08
:10322000036E022A16EF19F0D8900336022E14EF1F
:1032300019F0035004011A1365EF19F001C502F5E6
:10324000010E036E022A27EF19F0D8900336022EE2
:1032500025EF19F003500401221365EF19F001C5A1
:1032600002F5010E036E022A38EF19F0D8900336EA
:10327000022E36EF19F0035004012A1365EF19F0FE
:103280000450026E036A0350000AD8B44AEF19F0E2
:1032900065EF19F00250410AD8B4DAEF18F0030ACA
:1032A000D8B4EBEF18F0010AD8B4FCEF18F0070A15
:1032B000D8B40DEF19F0010AD8B41EEF19F0030AC3
:1032C000D8B42FEF19F065EF19F01200046ECFEFAC
:1032D00019F001C502F5010E036E022A72EF19F012
:1032E000D8900336022E70EF19F00350040100133A
:1032F000F4EF19F001C502F5010E036E022A83EF07
:1033000019F0D8900336022E81EF19F00350040112
:103310000813F4EF19F001C502F5010E036E022A3D
:1033200094EF19F0D8900336022E92EF19F0035063
:1033300004011013F4EF19F001C502F5010E036E3C
:10334000022AA5EF19F0D8900336022EA3EF19F048
:10335000035004011813F4EF19F001C502F5010E32
:10336000036E022AB6EF19F0D8900336022EB4EF9E
:1033700019F0035004012013F4EF19F001C502F510
:10338000010E036E022AC7EF19F0D8900336022E01
:10339000C5EF19F0035004012813F4EF19F004509D
:1033A000026E036A0350000AD8B4D9EF19F0F4EFA3
:1033B00019F00250410AD8B469EF19F0030AD8B4E1
:1033C0007AEF19F0010AD8B48BEF19F0070AD8B4D4
:1033D0009CEF19F0010AD8B4ADEF19F0030AD8B484
:1033E000BEEF19F0F4EF19F01200046E58EF1AF066
:1033F00001C502F5010E036E022A01EF1AF0D89002
:103400000336022EFFEF19F00350BE127DEF1AF0C3
:1034100001C502F5010E036E022A11EF1AF0D890D1
:103420000336022E0FEF1AF00350BF127DEF1AF091
:1034300001C502F5010E036E022A21EF1AF0D890A1
:103440000336022E1FEF1AF00350C0127DEF1AF060
:1034500001C502F5010E036E022A31EF1AF0D89071
:103460000336022E2FEF1AF00350C1127DEF1AF02F
:1034700001C502F5010E036E022A41EF1AF0D89041
:103480000336022E3FEF1AF00350C2127DEF1AF0FE
:1034900001C502F5010E036E022A51EF1AF0D89011
:1034A0000336022E4FEF1AF00350C3127DEF1AF0CD
:1034B0000450026E036A0350000AD8B462EF1AF097
:1034C0007DEF1AF00250410AD8B4F8EF19F0030A60
:1034D000D8B408EF1AF0010AD8B418EF1AF0070AA6
:1034E000D8B428EF1AF0010AD8B438EF1AF0030A5A
:1034F000D8B448EF1AF07DEF1AF01200046EE1EF35
:103500001AF001C502F5010E036E022A8AEF1AF0C5
:10351000D8900336022E88EF1AF00350C61206EF39
:103520001BF001C502F5010E036E022A9AEF1AF094
:10353000D8900336022E98EF1AF00350C71206EF08
:103540001BF001C502F5010E036E022AAAEF1AF064
:10355000D8900336022EA8EF1AF00350C81206EFD7
:103560001BF001C502F5010E036E022ABAEF1AF034
:10357000D8900336022EB8EF1AF00350C91206EFA6
:103580001BF001C502F5010E036E022ACAEF1AF004
:10359000D8900336022EC8EF1AF00350CA1206EF75
:1035A0001BF001C502F5010E036E022ADAEF1AF0D4
:1035B000D8900336022ED8EF1AF00350CB1206EF44
:1035C0001BF00450026E036A0350000AD8B4EBEFFC
:1035D0001AF006EF1BF00250410AD8B481EF1AF03E
:1035E000030AD8B491EF1AF0010AD8B4A1EF1AF087
:1035F000070AD8B4B1EF1AF0010AD8B4C1EF1AF033
:10360000030AD8B4D1EF1AF006EF1BF01200036ED4
:10361000C080016A03AE01D0012A010E01160132F9
:103620000132C35001187F0B0118C36E03C501F5A9
:10363000060E026ED8900132022E1AEF1BF0010E18
:103640000116013A01460146C3500118BF0B01188B
:10365000C36E03C501F5050E026ED8900132022E2D
:103660002DEF1BF0010E0116013A0146C35001185F
:10367000DF0B0118C36E03C501F5013A0F0E0116E9
:10368000010E0116013AC3500118EF0B0118C36E69
:1036900008EC1EF003C501F5D8900132D890013234
:1036A000D8900132010E011601320132C3500118C7
:1036B0007F0B0118C36E03C501F5D8900132D89075
:1036C0000132010E0116013A01460146C3500118AC
:1036D000BF0B0118C36E03C501F5D8900132010E6E
:1036E0000116013A0146C3500118DF0B0118C36EE1
:1036F00003C501F5010E0116013AC3500118EF0B85
:103700000118C36E08EC1EF01200036EC090016A2F
:1037100003AE01D0012A010E011601320132C3505D
:1037200001187F0B0118C36E03C501F5060E026E6A
:10373000D8900132022E98EF1BF0010E0116013ACB
:1037400001460146C3500118BF0B0118C36E03C5E3
:1037500001F5050E026ED8900132022EABEF1BF080
:10376000010E0116013A0146C3500118DF0B011882
:10377000C36E03C501F5013A0F0E0116010E0116C5
:10378000013AC3500118EF0B0118C36E08EC1EF08C
:1037900003C501F5D8900132D8900132D89001329A
:1037A000010E011601320132C35001187F0B0118BE
:1037B000C36E03C501F5D8900132D8900132010ED5
:1037C0000116013A01460146C3500118BF0B01180A
:1037D000C36E03C501F5D8900132010E0116013AFE
:1037E0000146C3500118DF0B0118C36E03C501F574
:1037F000010E0116013AC3500118EF0B0118C36EF8
:1038000008EC1EF012000C6E0650D8B40AEF1CF043
:103810000CEF1CF013EF1CF005C501F50C507EEC0D
:103820001AF018EF1CF005C501F50C5048EC18F023
:103830000750D8B41EEF1CF020EF1CF027EF1CF04F
:1038400005C501F50C50E2EC14F02CEF1CF005C599
:1038500001F50C5066EC19F00850D8B432EF1CF0AA
:1038600034EF1CF03BEF1CF005C501F50C50B9EC32
:1038700017F040EF1CF005C501F50C5077EC15F082
:103880000950D8B446EF1CF048EF1CF04FEF1CF085
:1038900005C501F50C5023EC13F054EF1CF005C5E1
:1038A00001F50C509BEC16F00A50D8B45AEF1CF0FE
:1038B0005CEF1CF063EF1CF005C501F50C502AEC21
:1038C00017F068EF1CF005C501F50C50B8EC13F0CB
:1038D0000B50D8B46EEF1CF070EF1CF077EF1CF0BB
:1038E00005C501F50C504DEC14F07CEF1CF005C53E
:1038F00001F50C50D7EC18F012000B0E046E010EFF
:1039000061EC1DF0000E0C6E9FEF1CF00C500624B5
:10391000D96E000E0720DA6EDF50D8A492EF1CF0AB
:1039200094EF1CF099EF1CF0000E0FEC1EF09CEFD2
:103930001CF0010E0FEC1EF014EC1EF00C2A0850C7
:103940000C5CD8A0A6EF1CF0A8EF1CF086EF1CF0D2
:103950000B0E046E020E61EC1DF0000E0D6ECAEF30
:103960001CF00D500924D96E000E0A20DA6EDF50CB
:10397000D8A4BDEF1CF0BFEF1CF0C4EF1CF0000E8C
:103980000FEC1EF0C7EF1CF0010E0FEC1EF014EC54
:103990001EF00D2A0B500D5CD8A0D1EF1CF0D3EF18
:1039A0001CF0B1EF1CF01200030E056E000E066E47
:1039B000010E076E000E086E010E096E010E0A6EF2
:1039C000010E0B6E460E03EC1CF0C386040E056E52
:1039D000010E066E010E076E010E086E010E096ED5
:1039E000010E0A6E010E0B6E420E03EC1CF0020E6D
:1039F000056E000E066E010E076E000E086E010EBB
:103A0000096E010E0A6E010E0B6E460E03EC1CF0E1
:103A1000020E016E460E0CEC16F0040E056E010E41
:103A2000066E010E076E010E086E010E096E010E84
:103A30000A6E010E0B6E420E03EC1CF01200C890D1
:103A4000C090C892C092CB98C398CB9AC39ACB9C93
:103A5000C39CCB9EC39E050E066EDF0E056EBC0E8C
:103A6000E82EFED7052EFCD7062EFAD7C39EC39CA0
:103A7000C38AC38808EC1EF07D0E056EAC0EE82EDE
:103A8000FED7052EFCD708EC1EF0040E056E1C0EAA
:103A9000E82EFED7052EFCD700D008EC1EF0C39E02
:103AA000C39CC38AC39808EC1EF0280E85EC1BF05B
:103AB0001C5085EC1BF01B5085EC1BF0F0EC1DF04E
:103AC0001200056E0504D8A468EF1DF06AEF1DF022
:103AD0006CEF1DF07F0E0426020E0518D8A473EFBC
:103AE0001DF075EF1DF077EF1DF0BF0E0426030EDD
:103AF0000518D8A47EEF1DF080EF1DF082EF1DF0B9
:103B0000930E0426040E0518D8A489EF1DF08BEF40
:103B10001DF08DEF1DF0D30E0426045085EC1BF034
:103B20001200000E066EA3EF1DF004500624056E71
:103B300005C5F6F4250EF76E000EF86E0800F55078
:103B400007EC1BF0062A04500624056E05C5F6F4A2
:103B5000250EF76E000EF86E0800F5500009D8A487
:103B6000B4EF1DF0B6EF1DF095EF1DF012000850F8
:103B7000080DF350400F85EC1BF0000E096E095044
:103B80000624D96E000E0720DA6EDF5007EC1BF01A
:103B9000092A070E0964CFEF1DF0D1EF1DF0BFEF2A
:103BA0001DF0010E046E010E61EC1DF01200FE0E00
:103BB000F66E3B0EF76E000EF86E01EE1BF110EE86
:103BC00012F00900F5C4EEF4E550E150FAE101EE1F
:103BD0002DF1080EEE6AE806FDE100018CEF12F00F
:103BE000010E85EC1BF02F0E046E8A0EE82EFED718
:103BF000042EFCD700D01B5085EC1BF01200060CE5
:103C00001F1F1F1F1F1F1F1F1F1111111111111F18
:103C1000C082C00E00D0E82EFDD7C0921200046E04
:103C2000045007EC1BF01200140E85EC1BF0120080
:083C3000300E0001AD6F12001F
:020000040001F9
:04FFFC00D7EF1DF02E
:020000040030CA
:080000008CFD3FFF9FFFDFFFB5
:01000900FFF7
:00000001FF
