:0400000081EF18F084
:102500000053616C696461733A202000456E7472F7
:08251000616461733A200000D0
:10300800400C400C400C400C400C400C400C400C58
:10301800420C400C400C400C400C400C400C400C46
:10302800400C400C400C400C400C400C400C400C38
:10303800400C400C400C400C400C400C400C420C26
:10304800400C400C400C400C400C400C400C400C18
:10305800400C400C400C400C400C400C400C400C08
:10306800420C400C400C400C400C400C400C400CF6
:10307800400C400C400C400C400C400C400C400CE8
:10308800400C400C400C400C400C400C400C400CD8
:10309800400C400C400C400C400C400C400C400CC8
:1030A800400C400C400C400C400C400C400C400CB8
:1030B800400C400C400C400C400C400C400C400CA8
:1030C800400C400C400C400C400C400C400C400C98
:1030D800400C400C400C400C400C400C400C400C88
:1030E800400C400C400C400C400C400C400C400C78
:0E30F800400C400C400C400CFF00A2EF24F0F6
:10310800B1AE89EF18F08BEF18F034EF19F0C10E5B
:103118000301196F7F0E186FB19E000E046E000E2A
:10312800036E3B0E0324D96E050E0420DA6EDE040E
:10313800D8A4A1EF18F0A3EF18F024EF19F0390E76
:103148000324D96E050E0420DA6E320EDF60AFEF6D
:1031580018F0B1EF18F0FEEF18F0390E0324D96E0D
:10316800050E0420DA6EDF2ACEEF18F0CFB0BFEFDD
:1031780018F0C1EF18F024EF19F0372A24EF19F0EE
:10318800CFB8C9EF18F0CBEF18F024EF19F0382AB0
:1031980024EF19F003C501F504C502F50250000A31
:1031A800D8B4D9EF18F024EF19F00150000AD8B4B8
:1031B800BAEF18F0010AD8B4C4EF18F024EF19F0E8
:1031C8001E0E3764EAEF18F0ECEF18F0EDEF18F088
:1031D800C376000E376E14EF19F01E0E3864F7EF41
:1031E80018F0F9EF18F0FAEF18F0C374000E386E03
:1031F80014EF19F003C501F504C502F50250000AE1
:10320800D8B409EF19F014EF19F00150000AD8B436
:10321800E4EF18F0010AD8B4F1EF18F014EF19F040
:103228003B0E0324D96E050E0420DA6EDF6A390ED0
:103238000324D96E050E0420DA6EDF6A24EF19F034
:10324800034A042A04BE32EF19F0045009E1020EC1
:10325800035CD8A032EF19F034EF19F095EF18F0AD
:10326800AFA039EF19F03BEF19F046EF19F03B50DA
:10327800D8A441EF19F043EF19F045EF19F0010E0A
:103288003B6EAF90B4A04BEF19F04DEF19F058EF2B
:1032980019F03C50D8A453EF19F055EF19F057EF37
:1032A80019F0010E3C6EB4901100086EC8EF19F0C9
:1032B80005C506F5010E076E062A65EF19F0D890C8
:1032C8000736062E63EF19F00750FF0A04010417AA
:1032D800EDEF19F005C506F5010E076E062A77EF22
:1032E80019F0D8900736062E75EF19F00750FF0A27
:1032F80004010C17EDEF19F005C506F5010E076E70
:10330800062A89EF19F0D8900736062E87EF19F0AC
:103318000750FF0A04011417EDEF19F005C506F56B
:10332800010E076E062A9BEF19F0D8900736062E75
:1033380099EF19F00750FF0A04011C17EDEF19F077
:1033480005C506F5010E076E062AADEF19F0D890EF
:103358000736062EABEF19F00750FF0A04012417B1
:10336800EDEF19F005C506F5010E076E062ABFEF49
:1033780019F0D8900736062EBDEF19F00750FF0A4E
:1033880004012C17EDEF19F00850066E076A075074
:10339800000AD8B4D2EF19F0EDEF19F00650410A3F
:1033A800D8B45CEF19F0030AD8B46EEF19F0010A2B
:1033B800D8B480EF19F0070AD8B492EF19F0010ACF
:1033C800D8B4A4EF19F0030AD8B4B6EF19F0EDEFAA
:1033D80019F01200086E5DEF1AF005C506F5010E2A
:1033E800076E062AFAEF19F0D8900736062EF8EF7E
:1033F80019F00750FF0A0401031782EF1AF005C5F8
:1034080006F5010E076E062A0CEF1AF0D89007365B
:10341800062E0AEF1AF00750FF0A04010B1782EF75
:103428001AF005C506F5010E076E062A1EEF1AF0FA
:10343800D8900736062E1CEF1AF00750FF0A040131
:10344800131782EF1AF005C506F5010E076E062A56
:1034580030EF1AF0D8900736062E2EEF1AF00750E4
:10346800FF0A04011B1782EF1AF005C506F5010EC5
:10347800076E062A42EF1AF0D8900736062E40EF5C
:103488001AF00750FF0A0401231782EF1AF005C546
:1034980006F5010E076E062A54EF1AF0D890073683
:1034A800062E52EF1AF00750FF0A04012B1782EF7D
:1034B8001AF00850066E076A0750000AD8B467EF7A
:1034C8001AF082EF1AF00650410AD8B4F1EF19F059
:1034D800030AD8B403EF1AF0010AD8B415EF1AF0AA
:1034E800070AD8B427EF1AF0010AD8B439EF1AF04E
:1034F800030AD8B44BEF1AF082EF1AF01200086EE4
:10350800F2EF1AF005C506F5010E076E062A8FEFD1
:103518001AF0D8900736062E8DEF1AF00750FF0ADA
:103528000401021717EF1BF005C506F5010E076E1B
:10353800062AA1EF1AF0D8900736062E9FEF1AF048
:103548000750FF0A04010A1717EF1BF005C506F517
:10355800010E076E062AB3EF1AF0D8900736062E2A
:10356800B1EF1AF00750FF0A0401121717EF1BF00A
:1035780005C506F5010E076E062AC5EF1AF0D890A4
:103588000736062EC3EF1AF00750FF0A04011A1770
:1035980017EF1BF005C506F5010E076E062AD7EFD3
:1035A8001AF0D8900736062ED5EF1AF00750FF0A02
:1035B8000401221717EF1BF005C506F5010E076E6B
:1035C800062AE9EF1AF0D8900736062EE7EF1AF028
:1035D8000750FF0A04012A1717EF1BF00850066E60
:1035E800076A0750000AD8B4FCEF1AF017EF1BF06F
:1035F8000650410AD8B486EF1AF0030AD8B498EFF7
:103608001AF0010AD8B4AAEF1AF0070AD8B4BCEF26
:103618001AF0010AD8B4CEEF1AF0030AD8B4E0EFD2
:103628001AF017EF1BF01200086E87EF1BF005C5A4
:1036380006F5010E076E062A24EF1BF0D890073610
:10364800062E22EF1BF00750FF0A04010017ACEF0B
:103658001BF005C506F5010E076E062A36EF1BF0AE
:10366800D8900736062E34EF1BF00750FF0A0401E6
:103678000817ACEF1BF005C506F5010E076E062A04
:1036880048EF1BF0D8900736062E46EF1BF0075080
:10369800FF0A04011017ACEF1BF005C506F5010E73
:1036A800076E062A5AEF1BF0D8900736062E58EFF9
:1036B8001BF00750FF0A04011817ACEF1BF005C5F3
:1036C80006F5010E076E062A6CEF1BF0D890073638
:1036D800062E6AEF1BF00750FF0A04012017ACEF13
:1036E8001BF005C506F5010E076E062A7EEF1BF0D6
:1036F800D8900736062E7CEF1BF00750FF0A04010E
:103708002817ACEF1BF00850066E076A0750000A2E
:10371800D8B491EF1BF0ACEF1BF00650410AD8B4B7
:103728001BEF1BF0030AD8B42DEF1BF0010AD8B425
:103738003FEF1BF0070AD8B451EF1BF0010AD8B4C9
:1037480063EF1BF0030AD8B475EF1BF0ACEF1BF066
:103758001200086E1CEF1CF005C506F5010E076E79
:10376800062AB9EF1BF0D8900736062EB7EF1BF0E4
:103778000750FF0A0401011741EF1CF005C506F5C3
:10378800010E076E062ACBEF1BF0D8900736062EDF
:10379800C9EF1BF00750FF0A0401091741EF1CF09D
:1037A80005C506F5010E076E062ADDEF1BF0D89059
:1037B8000736062EDBEF1BF00750FF0A040111172E
:1037C80041EF1CF005C506F5010E076E062AEFEF5E
:1037D8001BF0D8900736062EEDEF1BF00750FF0AB6
:1037E8000401191741EF1CF005C506F5010E076E17
:1037F800062A01EF1CF0D8900736062EFFEF1BF0C3
:103808000750FF0A0401211741EF1CF005C506F512
:10381800010E076E062A13EF1CF0D8900736062E05
:1038280011EF1CF00750FF0A0401291741EF1CF0A3
:103838000850066E076A0750000AD8B426EF1CF035
:1038480041EF1CF00650410AD8B4B0EF1BF0030A50
:10385800D8B4C2EF1BF0010AD8B4D4EF1BF0070AA2
:10386800D8B4E6EF1BF0010AD8B4F8EF1BF0030A4E
:10387800D8B40AEF1CF041EF1CF01200086EABEF51
:103888001CF005C506F5010E076E062A4EEF1CF062
:10389800D8900736062E4CEF1CF00750FF0ABE16CC
:1038A800D0EF1CF005C506F5010E076E062A5FEF7E
:1038B8001CF0D8900736062E5DEF1CF00750FF0A63
:1038C800BF16D0EF1CF005C506F5010E076E062AD7
:1038D80070EF1CF0D8900736062E6EEF1CF00750DC
:1038E800FF0AC016D0EF1CF005C506F5010E076EDD
:1038F800062A81EF1CF0D8900736062E7FEF1CF0C1
:103908000750FF0AC116D0EF1CF005C506F5010ED9
:10391800076E062A92EF1CF0D8900736062E90EF15
:103928001CF00750FF0AC216D0EF1CF005C506F5BB
:10393800010E076E062AA3EF1CF0D8900736062E54
:10394800A1EF1CF00750FF0AC316D0EF1CF0085077
:10395800066E076A0750000AD8B4B5EF1CF0D0EF1E
:103968001CF00650410AD8B445EF1CF0030AD8B43D
:1039780056EF1CF0010AD8B467EF1CF0070AD8B458
:1039880078EF1CF0010AD8B489EF1CF0030AD8B408
:103998009AEF1CF0D0EF1CF01200086E3AEF1DF001
:1039A80005C506F5010E076E062ADDEF1CF0D89056
:1039B8000736062EDBEF1CF00750040104135FEFF7
:1039C8001DF005C506F5010E076E062AEEEF1CF080
:1039D800D8900736062EECEF1CF0075004010C13A4
:1039E8005FEF1DF005C506F5010E076E062AFFEF0D
:1039F8001CF0D8900736062EFDEF1CF00750040186
:103A080014135FEF1DF005C506F5010E076E062AB3
:103A180010EF1DF0D8900736062E0EEF1DF0075058
:103A280004011C135FEF1DF005C506F5010E076EB6
:103A3800062A21EF1DF0D8900736062E1FEF1DF03D
:103A48000750040124135FEF1DF005C506F5010EAC
:103A5800076E062A32EF1DF0D8900736062E30EF93
:103A68001DF0075004012C135FEF1DF00850066E7F
:103A7800076A0750000AD8B444EF1DF05FEF1DF045
:103A88000650410AD8B4D4EF1CF0030AD8B4E5EFC5
:103A98001CF0010AD8B4F6EF1CF0070AD8B407EFF7
:103AA8001DF0010AD8B418EF1DF0030AD8B429EFA5
:103AB8001DF05FEF1DF01200086EC9EF1DF005C57F
:103AC80006F5010E076E062A6CEF1DF0D890073632
:103AD800062E6AEF1DF0075004010313EEEF1DF0E8
:103AE80005C506F5010E076E062A7DEF1DF0D89074
:103AF8000736062E7BEF1DF0075004010B13EEEF7F
:103B08001DF005C506F5010E076E062A8EEF1DF09D
:103B1800D8900736062E8CEF1DF0075004011313BA
:103B2800EEEF1DF005C506F5010E076E062A9FEF9C
:103B38001DF0D8900736062E9DEF1DF007500401A2
:103B48001B13EEEF1DF005C506F5010E076E062ADC
:103B5800B0EF1DF0D8900736062EAEEF1DF00750D7
:103B680004012313EEEF1DF005C506F5010E076EDF
:103B7800062AC1EF1DF0D8900736062EBFEF1DF0BC
:103B8800075004012B13EEEF1DF00850066E076A6C
:103B98000750000AD8B4D3EF1DF0EEEF1DF0065021
:103BA800410AD8B463EF1DF0030AD8B474EF1DF0CE
:103BB800010AD8B485EF1DF0070AD8B496EF1DF0B6
:103BC800010AD8B4A7EF1DF0030AD8B4B8EF1DF066
:103BD800EEEF1DF01200086E58EF1EF005C506F551
:103BE800010E076E062AFBEF1DF0D8900736062E49
:103BF800F9EF1DF00750040101137DEF1EF005C514
:103C080006F5010E076E062A0CEF1EF0D89007364F
:103C1800062E0AEF1EF00750040109137DEF1EF06F
:103C280005C506F5010E076E062A1DEF1EF0D89091
:103C38000736062E1BEF1EF00750040111137DEF07
:103C48001EF005C506F5010E076E062A2EEF1EF0BA
:103C5800D8900736062E2CEF1EF0075004011913D2
:103C68007DEF1EF005C506F5010E076E062A3FEF2B
:103C78001EF0D8900736062E3DEF1EF007500401BF
:103C880021137DEF1EF005C506F5010E076E062A05
:103C980050EF1EF0D8900736062E4EEF1EF0075054
:103CA800040129137DEF1EF00850066E076A0750BD
:103CB800000AD8B462EF1EF07DEF1EF00650410AEC
:103CC800D8B4F2EF1DF0030AD8B403EF1EF0010ACE
:103CD800D8B414EF1EF0070AD8B425EF1EF0010A75
:103CE800D8B436EF1EF0030AD8B447EF1EF07DEFC4
:103CF8001EF01200086EE7EF1EF005C506F5010E6E
:103D0800076E062A8AEF1EF0D8900736062E88EF2F
:103D18001EF00750FF0AC6160CEF1FF005C506F582
:103D2800010E076E062A9BEF1EF0D8900736062E66
:103D380099EF1EF00750FF0AC7160CEF1FF005C5D4
:103D480006F5010E076E062AACEF1EF0D89007366E
:103D5800062EAAEF1EF00750FF0AC8160CEF1FF038
:103D680005C506F5010E076E062ABDEF1EF0D890B0
:103D78000736062EBBEF1EF00750FF0AC9160CEFD8
:103D88001FF005C506F5010E076E062ACEEF1EF0D8
:103D9800D8900736062ECCEF1EF00750FF0ACA1639
:103DA8000CEF1FF005C506F5010E076E062ADFEFBA
:103DB8001EF0D8900736062EDDEF1EF00750FF0ADA
:103DC800CB160CEF1FF00850066E076A0750000A62
:103DD800D8B4F1EF1EF00CEF1FF00650410AD8B42A
:103DE80081EF1EF0030AD8B492EF1EF0010AD8B48E
:103DF800A3EF1EF0070AD8B4B4EF1EF0010AD8B436
:103E0800C5EF1EF0030AD8B4D6EF1EF00CEF1FF072
:103E18001200086E76EF1FF005C506F5010E076E55
:103E2800062A19EF1FF0D8900736062E17EF1FF055
:103E38000750040102139BEF1FF005C506F5010E9C
:103E4800076E062A2AEF1FF0D8900736062E28EFAD
:103E58001FF0075004010A139BEF1FF005C506F574
:103E6800010E076E062A3BEF1FF0D8900736062E84
:103E780039EF1FF00750040112139BEF1FF005C51F
:103E880006F5010E076E062A4CEF1FF0D89007368C
:103E9800062E4AEF1FF0075004011A139BEF1FF07C
:103EA80005C506F5010E076E062A5DEF1FF0D890CE
:103EB8000736062E5BEF1FF00750040122139BEF15
:103EC8001FF005C506F5010E076E062A6EEF1FF0F6
:103ED800D8900736062E6CEF1FF0075004012A13FE
:103EE8009BEF1FF00850066E076A0750000AD8B407
:103EF80080EF1FF09BEF1FF00650410AD8B410EF77
:103F08001FF0030AD8B421EF1FF0010AD8B432EF2A
:103F18001FF0070AD8B443EF1FF0010AD8B454EFD2
:103F28001FF0030AD8B465EF1FF09BEF1FF01200D3
:103F3800086E05EF20F005C506F5010E076E062A86
:103F4800A8EF1FF0D8900736062EA6EF1FF00750EF
:103F5800040100132AEF20F005C506F5010E076ECF
:103F6800062AB9EF1FF0D8900736062EB7EF1FF0D4
:103F78000750040108132AEF20F005C506F5010EC5
:103F8800076E062ACAEF1FF0D8900736062EC8EF2C
:103F98001FF00750040110132AEF20F005C506F59D
:103FA800010E076E062ADBEF1FF0D8900736062EA3
:103FB800D9EF1FF00750040118132AEF20F005C5A8
:103FC80006F5010E076E062AECEF1FF0D8900736AB
:103FD800062EEAEF1FF00750040120132AEF20F005
:103FE80005C506F5010E076E062AFDEF1FF0D890ED
:103FF8000736062EFBEF1FF00750040128132AEF9F
:1040080020F00850066E076A0750000AD8B40FEF70
:1040180020F02AEF20F00650410AD8B49FEF1FF095
:10402800030AD8B4B0EF1FF0010AD8B4C1EF1FF0EB
:10403800070AD8B4D2EF1FF0010AD8B4E3EF1FF093
:10404800030AD8B4F4EF1FF02AEF20F01200086E2C
:104058008EEF20F005C506F5010E076E062A37EF2C
:1040680020F0D8900736062E35EF20F00750CE14F2
:10407800B3EF20F005C506F5010E076E062A47EFD7
:1040880020F0D8900736062E45EF20F00750CF14C1
:10409800B3EF20F005C506F5010E076E062A57EFA7
:1040A80020F0D8900736062E55EF20F00750D01490
:1040B800B3EF20F005C506F5010E076E062A67EF77
:1040C80020F0D8900736062E65EF20F00750D1145F
:1040D800B3EF20F005C506F5010E076E062A77EF47
:1040E80020F0D8900736062E75EF20F00750D2142E
:1040F800B3EF20F005C506F5010E076E062A87EF17
:1041080020F0D8900736062E85EF20F00750D314FC
:10411800B3EF20F00850066E076A0750000AD8B4BB
:1041280098EF20F0B3EF20F00650410AD8B42EEFF4
:1041380020F0030AD8B43EEF20F0010AD8B44EEFBD
:1041480020F0070AD8B45EEF20F0010AD8B46EEF69
:1041580020F0030AD8B47EEF20F0B3EF20F012006D
:10416800086E17EF21F005C506F5010E076E062A41
:10417800C0EF20F0D8900736062EBEEF20F007508B
:10418800C6123CEF21F005C506F5010E076E062A9A
:10419800D0EF20F0D8900736062ECEEF20F007504B
:1041A800C7123CEF21F005C506F5010E076E062A79
:1041B800E0EF20F0D8900736062EDEEF20F007500B
:1041C800C8123CEF21F005C506F5010E076E062A58
:1041D800F0EF20F0D8900736062EEEEF20F00750CB
:1041E800C9123CEF21F005C506F5010E076E062A37
:1041F80000EF21F0D8900736062EFEEF20F007508A
:10420800CA123CEF21F005C506F5010E076E062A15
:1042180010EF21F0D8900736062E0EEF21F0075048
:10422800CB123CEF21F00850066E076A0750000ACF
:10423800D8B421EF21F03CEF21F00650410AD8B460
:10424800B7EF20F0030AD8B4C7EF20F0010AD8B4BA
:10425800D7EF20F0070AD8B4E7EF20F0010AD8B466
:10426800F7EF20F0030AD8B407EF21F03CEF21F074
:104278001200076EC080056A07AE01D0052A010E3C
:10428800051605320532C35005187F0B0518C36E95
:1042980007C505F5060E066ED8900532062E50EFB6
:1042A80021F0010E0516053A05460546C3500518C6
:1042B800BF0B0518C36E07C505F5050E066ED89029
:1042C8000532062E63EF21F0010E0516053A054664
:1042D800C3500518DF0B0518C36E07C505F5053A69
:1042E8000F0E0516010E0516053AC3500518EF0BFB
:1042F8000518C36E21EC25F007C505F5D8900532E1
:10430800D8900532D8900532010E051605320532CF
:10431800C35005187F0B0518C36E07C505F5D8905F
:104328000532D8900532010E0516053A05460546B0
:10433800C3500518BF0B0518C36E07C505F5D890FF
:104348000532010E0516053A0546C3500518DF0B60
:104358000518C36E07C505F5010E0516053AC350C5
:104368000518EF0B0518C36E21EC25F01200076E37
:10437800C090056A07AE01D0052A010E0516053260
:104388000532C35005187F0B0518C36E07C505F520
:10439800060E066ED8900532062ECEEF21F0010EDD
:1043A8000516053A05460546C3500518BF0B0518FE
:1043B800C36E07C505F5050E066ED8900532062EA4
:1043C800E1EF21F0010E0516053A0546C350051820
:1043D800DF0B0518C36E07C505F5053A0F0E051660
:1043E800010E0516053AC3500518EF0B0518C36EE4
:1043F80021EC25F007C505F5D8900532D89005328F
:10440800D8900532010E051605320532C35005183D
:104418007F0B0518C36E07C505F5D8900532D890EF
:104428000532010E0516053A05460546C35005181E
:10443800BF0B0518C36E07C505F5D8900532010EE8
:104448000516053A0546C3500518DF0B0518C36E57
:1044580007C505F5010E0516053AC3500518EF0BFB
:104468000518C36E21EC25F01200106E0A50D8B45E
:1044780040EF22F042EF22F049EF22F009C505F59E
:104488001050B4EC20F04EEF22F009C505F510509D
:104498007EEC1EF00B50D8B454EF22F056EF22F009
:1044A8005DEF22F009C505F5105018EC1BF062EF1E
:1044B80022F009C505F510509CEC1FF00C50D8B43B
:1044C80068EF22F06AEF22F071EF22F009C505F5D6
:1044D8001050EFEC1DF076EF22F009C505F51050ED
:1044E800ADEC1BF00D50D8B47CEF22F07EEF22F03B
:1044F80085EF22F009C505F5105059EC19F08AEF3F
:1045080022F009C505F51050D1EC1CF00E50D8B4B6
:1045180090EF22F092EF22F099EF22F009C505F50D
:10452800105060EC1DF09EEF22F009C505F5105003
:10453800EEEC19F00F50D8B4A4EF22F0A6EF22F059
:10454800ADEF22F009C505F5105083EC1AF0B2EF73
:1045580022F009C505F510500DEC1FF0120031ECE2
:1045680025F069EC23F0B4EC23F0F6EC23F0010E0F
:10457800056E000E066E000E076E020EE2EC24F0C9
:104588007F0E056EC10E19EC25F07FEC24F0000EAD
:104598001A6E000E196E000E1C6E000E1B6ECFA850
:1045A800D8EF22F0DBEF22F0010EDCEF22F0000E54
:1045B800196ECFA0E2EF22F0E5EF22F0010EE6EF50
:1045C80022F0000E1A6E030E056E460E2BEC20F03C
:1045D800FF0A1B6E020E056E460E2BEC20F01C6EB9
:1045E800190E0A6E050E0B6E020E0C6E1B0E0D6E6A
:1045F800050E0E6E020E0F6E12EC23F0090E186EE9
:104608001E0E176EE40EE82EFED7172EFCD7182EB6
:10461800FAD700D0D3EF22F081EF18F00B0E086E16
:10462800010E29EC24F0000E106E34EF23F0105028
:104638000A24D96E000E0B20DA6EDF50D8A427EFBB
:1046480023F029EF23F02EEF23F0000E28EC25F0BD
:1046580031EF23F0010E28EC25F02DEC25F0102A7F
:104668000C50105CD8A03BEF23F03DEF23F01BEF7C
:1046780023F00B0E086E020E29EC24F0000E116ECA
:104688005FEF23F011500D24D96E000E0E20DA6E64
:10469800DF50D8A452EF23F054EF23F059EF23F062
:1046A800000E28EC25F05CEF23F0010E28EC25F035
:1046B8002DEC25F0112A0F50115CD8A066EF23F0DD
:1046C80068EF23F046EF23F01200030E096E000E88
:1046D8000A6E010E0B6E000E0C6E010E0D6E010EB1
:1046E8000E6E010E0F6E460E39EC22F0C386040ED4
:1046F800096E010E0A6E010E0B6E010E0C6E010E94
:104708000D6E010E0E6E010E0F6E420E39EC22F088
:10471800020E096E000E0A6E010E0B6E000E0C6E74
:10472800010E0D6E010E0E6E010E0F6E460E39EC67
:1047380022F0020E056E460E42EC1CF0000E096EC9
:10474800010E0A6E010E0B6E010E0C6E010E0D6E3F
:10475800010E0E6E010E0F6E420E39EC22F01200A1
:10476800C890C090C892C092CB98C398CB9AC39A6D
:10477800CB9CC39CCB9EC39E050E0A6EDF0E096EB2
:10478800BC0EE82EFED7092EFCD70A2EFAD7C39EF8
:10479800C39CC38AC38821EC25F07D0E096EAC0E3C
:1047A800E82EFED7092EFCD721EC25F0040E096E61
:1047B8001C0EE82EFED7092EFCD700D021EC25F0E0
:1047C800C39EC39CC38AC39821EC25F0280EBBEC7A
:1047D80021F01E50BBEC21F01D50BBEC21F001EC88
:1047E80025F01200270E0A6E050E0B6E000E0C6ED9
:1047F800C2EC24F01F0E0A6E050E0B6E010E0C6E35
:10480800C2EC24F0010E086E010E29EC24F00C0E07
:10481800086E59EC24F0000E28EC25F02DEC25F05C
:10482800000E28EC25F0010E086E020E29EC24F08B
:10483800010E086E59EC24F0000E28EC25F02DEC42
:1048480025F0000E28EC25F01200096E0904D8A402
:1048580030EF24F032EF24F034EF24F07F0E0826F6
:10486800020E0918D8A43BEF24F03DEF24F03FEFE7
:1048780024F0BF0E0826030E0918D8A446EF24F02A
:1048880048EF24F04AEF24F0930E0826040E091886
:10489800D8A451EF24F053EF24F055EF24F0D30EB1
:1048A80008260850BBEC21F01200000E0A6E6BEFD0
:1048B80024F008500A24096E09C5F6F4250EF76E8F
:1048C800000EF86E0800F5503DEC21F00A2A085059
:1048D8000A24096E09C5F6F4250EF76E000EF86E67
:1048E8000800F5500009D8A47CEF24F07EEF24F0EE
:1048F8005DEF24F01200D68AD68ED68CB18EA18EAA
:104908000301659FD690AF909F80638102013F515C
:10491800E70B08093F6F3F51F80B04093F6FD69228
:10492800B490A48003016881D69E000E04015F6FD5
:10493800300E5E6F080E5D6FD68E1200200EF66E7A
:104948004A0EF76E000EF86E01EE1DF110EE12F031
:104958000900F5C4EEF4E550E150FAE101EE2FF15B
:104968000E0EEE6AE806FDE10401080E5D6F300EDA
:104978005E6F000E5F6F0001B3EF22F00C50080D60
:10498800F350400FBBEC21F0000E0D6E0D500A24C1
:10499800D96E000E0B20DA6EDF503DEC21F00D2AA7
:1049A800070E0D64DAEF24F0DCEF24F0CAEF24F0F0
:1049B800010E086E010E29EC24F01200096E09C5DB
:1049C80008F5083A084603011B5108181F0B081878
:1049D8001B6F05B002D01A9902D003011A8906B0DC
:1049E80002D01B9902D003011B891B510718F00B39
:1049F80007181B6FF00E1A171200010EBBEC21F0FE
:104A08002F0E086E8A0EE82EFED7082EFCD700D08F
:104A18001D50BBEC21F01200060C1F1F1F1F1F1F8B
:104A28001F1F1F1111111111111F066E06C519F351
:104A380005C518F303011A8F1200C082C00E00D0FA
:104A4800E82EFDD7C0921200086E08503DEC21F008
:104A58001200140EBBEC21F01200300E0001AD6FF5
:024A680012003A
:020000040030CA
:080000008CFD3FFF9FFFDFFFB5
:01000900FFF7
:00000001FF
