:04000000FEEFFFF020
:102500000053616C696461733A202000456E7472F7
:10251000616461733A200000046EFBEF12F001C5A4
:1025200002F5010E036E022A98EF12F0D8900336DE
:10253000022E96EF12F00350FF0A0401041720EF59
:1025400013F001C502F5010E036E022AAAEF12F084
:10255000D8900336022EA8EF12F00350FF0A0401B0
:102560000C1720EF13F001C502F5010E036E022ACD
:10257000BCEF12F0D8900336022EBAEF12F00350DF
:10258000FF0A0401141720EF13F001C502F5010E34
:10259000036E022ACEEF12F0D8900336022ECCEF53
:1025A00012F00350FF0A04011C1720EF13F001C5BD
:1025B00002F5010E036E022AE0EF12F0D890033606
:1025C000022EDEEF12F00350FF0A0401241720EF61
:1025D00013F001C502F5010E036E022AF2EF12F0AC
:1025E000D8900336022EF0EF12F00350FF0A0401D8
:1025F0002C1720EF13F00450026E036A0350000AF8
:10260000D8B405EF13F020EF13F00250410AD8B40C
:102610008FEF12F0030AD8B4A1EF12F0010AD8B478
:10262000B3EF12F0070AD8B4C5EF12F0010AD8B41C
:10263000D7EF12F0030AD8B4E9EF12F020EF13F04D
:102640001200046E90EF13F001C502F5010E036E47
:10265000022A2DEF13F0D8900336022E2BEF13F041
:102660000350FF0A04010317B5EF13F001C502F58B
:10267000010E036E022A3FEF13F0D8900336022EAC
:102680003DEF13F00350FF0A04010B17B5EF13F0F1
:1026900001C502F5010E036E022A51EF13F0D89026
:1026A0000336022E4FEF13F00350FF0A04011317F5
:1026B000B5EF13F001C502F5010E036E022A63EFB8
:1026C00013F0D8900336022E61EF13F00350FF0A87
:1026D00004011B17B5EF13F001C502F5010E036EDF
:1026E000022A75EF13F0D8900336022E73EF13F021
:1026F0000350FF0A04012317B5EF13F001C502F5DB
:10270000010E036E022A87EF13F0D8900336022ED3
:1027100085EF13F00350FF0A04012B17B5EF13F0F8
:102720000450026E036A0350000AD8B49AEF13F003
:10273000B5EF13F00250410AD8B424EF13F0030AA6
:10274000D8B436EF13F0010AD8B448EF13F0070AF3
:10275000D8B45AEF13F0010AD8B46CEF13F0030A9F
:10276000D8B47EEF13F0B5EF13F01200046E25EF2E
:1027700014F001C502F5010E036E022AC2EF13F038
:10278000D8900336022EC0EF13F00350FF0A040165
:1027900002174AEF14F001C502F5010E036E022A7A
:1027A000D4EF13F0D8900336022ED2EF13F003507B
:1027B000FF0A04010A174AEF14F001C502F5010EE1
:1027C000036E022AE6EF13F0D8900336022EE4EFF0
:1027D00013F00350FF0A040112174AEF14F001C569
:1027E00002F5010E036E022AF8EF13F0D8900336BB
:1027F000022EF6EF13F00350FF0A04011A174AEFF6
:1028000014F001C502F5010E036E022A0AEF14F05E
:10281000D8900336022E08EF14F00350FF0A04018B
:1028200022174AEF14F001C502F5010E036E022AC9
:102830001CEF14F0D8900336022E1AEF14F0035058
:10284000FF0A04012A174AEF14F00450026E036ACB
:102850000350000AD8B42FEF14F04AEF14F00250DE
:10286000410AD8B4B9EF13F0030AD8B4CBEF13F090
:10287000010AD8B4DDEF13F0070AD8B4EFEF13F074
:10288000010AD8B401EF14F0030AD8B413EF14F01E
:102890004AEF14F01200046EBAEF14F001C502F50D
:1028A000010E036E022A57EF14F0D8900336022E61
:1028B00055EF14F00350FF0A04010017DFEF14F086
:1028C00001C502F5010E036E022A69EF14F0D890DB
:1028D0000336022E67EF14F00350FF0A04010817B5
:1028E000DFEF14F001C502F5010E036E022A7BEF43
:1028F00014F0D8900336022E79EF14F00350FF0A3B
:1029000004011017DFEF14F001C502F5010E036E8C
:10291000022A8DEF14F0D8900336022E8BEF14F0BC
:102920000350FF0A04011817DFEF14F001C502F588
:10293000010E036E022A9FEF14F0D8900336022E88
:102940009DEF14F00350FF0A04012017DFEF14F08D
:1029500001C502F5010E036E022AB1EF14F0D89002
:102960000336022EAFEF14F00350FF0A04012817BC
:10297000DFEF14F00450026E036A0350000AD8B46B
:10298000C4EF14F0DFEF14F00250410AD8B44EEF58
:1029900014F0030AD8B460EF14F0010AD8B472EF4F
:1029A00014F0070AD8B484EF14F0010AD8B496EFF3
:1029B00014F0030AD8B4A8EF14F0DFEF14F01200FB
:1029C000046E4FEF15F001C502F5010E036E022AE9
:1029D000ECEF14F0D8900336022EEAEF14F0035017
:1029E000FF0A0401011774EF15F001C502F5010E8D
:1029F000036E022AFEEF14F0D8900336022EFCEF8D
:102A000014F00350FF0A0401091774EF15F001C513
:102A100002F5010E036E022A10EF15F0D89003366E
:102A2000022E0EEF15F00350FF0A0401111774EF88
:102A300015F001C502F5010E036E022A22EF15F012
:102A4000D8900336022E20EF15F00350FF0A040140
:102A5000191774EF15F001C502F5010E036E022A75
:102A600034EF15F0D8900336022E32EF15F00350F4
:102A7000FF0A0401211774EF15F001C502F5010EDC
:102A8000036E022A46EF15F0D8900336022E44EF6B
:102A900015F00350FF0A0401291774EF15F00450D4
:102AA000026E036A0350000AD8B459EF15F074EFB0
:102AB00015F00250410AD8B4E3EF14F0030AD8B479
:102AC000F5EF14F0010AD8B407EF15F0070AD8B4EF
:102AD00019EF15F0010AD8B42BEF15F0030AD8B49A
:102AE0003DEF15F074EF15F01200046EDEEF15F0F7
:102AF00001C502F5010E036E022A81EF15F0D89090
:102B00000336022E7FEF15F00350FF0ABE1603EFC7
:102B100016F001C502F5010E036E022A92EF15F0C0
:102B2000D8900336022E90EF15F00350FF0ABF161F
:102B300003EF16F001C502F5010E036E022AA3EFA2
:102B400015F0D8900336022EA1EF15F00350FF0ABE
:102B5000C01603EF16F001C502F5010E036E022A3E
:102B6000B4EF15F0D8900336022EB2EF15F00350F3
:102B7000FF0AC11603EF16F001C502F5010E036E40
:102B8000022AC5EF15F0D8900336022EC3EF15F0D8
:102B90000350FF0AC21603EF16F001C502F5010E3D
:102BA000036E022AD6EF15F0D8900336022ED4EF2A
:102BB00015F00350FF0AC31603EF16F00450026E1F
:102BC000036A0350000AD8B4E8EF15F003EF16F0DB
:102BD0000250410AD8B478EF15F0030AD8B489EF4F
:102BE00015F0010AD8B49AEF15F0070AD8B4ABEF84
:102BF00015F0010AD8B4BCEF15F0030AD8B4CDEF34
:102C000015F003EF16F01200046E6DEF16F001C51B
:102C100002F5010E036E022A10EF16F0D89003366B
:102C2000022E0EEF16F003500401041392EF16F07B
:102C300001C502F5010E036E022A21EF16F0D890AD
:102C40000336022E1FEF16F0035004010C1392EF0F
:102C500016F001C502F5010E036E022A32EF16F0DE
:102C6000D8900336022E30EF16F0035004011413EF
:102C700092EF16F001C502F5010E036E022A43EF32
:102C800016F0D8900336022E41EF16F003500401DF
:102C90001C1392EF16F001C502F5010E036E022A15
:102CA00054EF16F0D8900336022E52EF16F0035070
:102CB0000401241392EF16F001C502F5010E036E14
:102CC000022A65EF16F0D8900336022E63EF16F055
:102CD000035004012C1392EF16F00450026E036AA5
:102CE0000350000AD8B477EF16F092EF16F00250B6
:102CF000410AD8B407EF16F0030AD8B418EF16F05B
:102D0000010AD8B429EF16F0070AD8B43AEF16F042
:102D1000010AD8B44BEF16F0030AD8B45CEF16F0F2
:102D200092EF16F01200046EFCEF16F001C502F5EA
:102D3000010E036E022A9FEF16F0D8900336022E82
:102D40009DEF16F003500401031321EF17F001C5A6
:102D500002F5010E036E022AB0EF16F0D89003368A
:102D6000022EAEEF16F0035004010B1321EF17F003
:102D700001C502F5010E036E022AC1EF16F0D890CC
:102D80000336022EBFEF16F003500401131321EF98
:102D900017F001C502F5010E036E022AD2EF16F0FC
:102DA000D8900336022ED0EF16F0035004011B1307
:102DB00021EF17F001C502F5010E036E022AE3EFC1
:102DC00016F0D8900336022EE1EF16F003500401FE
:102DD000231321EF17F001C502F5010E036E022A3D
:102DE000F4EF16F0D8900336022EF2EF16F00350EF
:102DF00004012B1321EF17F00450026E036A0350F5
:102E0000000AD8B406EF17F021EF17F00250410A7C
:102E1000D8B496EF16F0030AD8B4A7EF16F0010A5B
:102E2000D8B4B8EF16F0070AD8B4C9EF16F0010A03
:102E3000D8B4DAEF16F0030AD8B4EBEF16F021EFAE
:102E400017F01200046E8BEF17F001C502F5010EAA
:102E5000036E022A2EEF17F0D8900336022E2CEFC5
:102E600017F0035004010113B0EF17F001C502F58C
:102E7000010E036E022A3FEF17F0D8900336022EA0
:102E80003DEF17F0035004010913B0EF17F001C52F
:102E900002F5010E036E022A50EF17F0D8900336A8
:102EA000022E4EEF17F0035004011113B0EF17F08C
:102EB00001C502F5010E036E022A61EF17F0D890EA
:102EC0000336022E5FEF17F0035004011913B0EF21
:102ED00017F001C502F5010E036E022A72EF17F01A
:102EE000D8900336022E70EF17F00350040121131F
:102EF000B0EF17F001C502F5010E036E022A83EF51
:102F000017F0D8900336022E81EF17F0035004011A
:102F10002913B0EF17F00450026E036A0350000A41
:102F2000D8B495EF17F0B0EF17F00250410AD8B4BB
:102F300025EF17F0030AD8B436EF17F0010AD8B41A
:102F400047EF17F0070AD8B458EF17F0010AD8B4C2
:102F500069EF17F0030AD8B47AEF17F0B0EF17F063
:102F60001200046E1AEF18F001C502F5010E036E8F
:102F7000022ABDEF17F0D8900336022EBBEF17F0F0
:102F80000350FF0AC6163FEF18F001C502F5010E07
:102F9000036E022ACEEF17F0D8900336022ECCEF44
:102FA00017F00350FF0AC7163FEF18F001C502F5EE
:102FB000010E036E022ADFEF17F0D8900336022EBF
:102FC000DDEF17F00350FF0AC8163FEF18F001C5F8
:102FD00002F5010E036E022AF0EF17F0D8900336C7
:102FE000022EEEEF17F00350FF0AC9163FEF18F05C
:102FF00001C502F5010E036E022A01EF18F0D89008
:103000000336022EFFEF17F00350FF0ACA163FEFF8
:1030100018F001C502F5010E036E022A12EF18F036
:10302000D8900336022E10EF18F00350FF0ACB168B
:103030003FEF18F00450026E036A0350000AD8B440
:1030400024EF18F03FEF18F00250410AD8B4B4EF63
:1030500017F0030AD8B4C5EF17F0010AD8B4D6EFB9
:1030600017F0070AD8B4E7EF17F0010AD8B4F8EF61
:1030700017F0030AD8B409EF18F03FEF18F0120068
:10308000046EA9EF18F001C502F5010E036E022AC5
:103090004CEF18F0D8900336022E4AEF18F0035088
:1030A00004010213CEEF18F001C502F5010E036E04
:1030B000022A5DEF18F0D8900336022E5BEF18F06D
:1030C000035004010A13CEEF18F001C502F5010EFA
:1030D000036E022A6EEF18F0D8900336022E6CEFC2
:1030E00018F0035004011213CEEF18F001C502F5D9
:1030F000010E036E022A7FEF18F0D8900336022EDD
:103100007DEF18F0035004011A13CEEF18F001C53B
:1031100002F5010E036E022A90EF18F0D8900336E4
:10312000022E8EEF18F0035004012213CEEF18F098
:1031300001C502F5010E036E022AA1EF18F0D89026
:103140000336022E9FEF18F0035004012A13CEEF2E
:1031500018F00450026E036A0350000AD8B4B3EFAB
:1031600018F0CEEF18F00250410AD8B443EF18F02F
:10317000030AD8B454EF18F0010AD8B465EF18F078
:10318000070AD8B476EF18F0010AD8B487EF18F020
:10319000030AD8B498EF18F0CEEF18F01200046EBE
:1031A00038EF19F001C502F5010E036E022ADBEFBC
:1031B00018F0D8900336022ED9EF18F0035004010E
:1031C00000135DEF19F001C502F5010E036E022A2E
:1031D000ECEF18F0D8900336022EEAEF18F0035007
:1031E000040108135DEF19F001C502F5010E036E2D
:1031F000022AFDEF18F0D8900336022EFBEF18F0EC
:103200000350040110135DEF19F001C502F5010E22
:10321000036E022A0EEF19F0D8900336022E0CEF3F
:1032200019F00350040118135DEF19F001C502F500
:10323000010E036E022A1FEF19F0D8900336022EFA
:103240001DEF19F00350040120135DEF19F001C5C3
:1032500002F5010E036E022A30EF19F0D890033602
:10326000022E2EEF19F00350040128135DEF19F020
:103270000450026E036A0350000AD8B442EF19F0FA
:103280005DEF19F00250410AD8B4D2EF18F0030AEA
:10329000D8B4E3EF18F0010AD8B4F4EF18F0070A35
:1032A000D8B405EF19F0010AD8B416EF19F0030AE3
:1032B000D8B427EF19F05DEF19F012000CEC1EF0F6
:1032C000C8EC1CF013EC1DF0230E066E050E076E05
:1032D000000E086EABEC1DF01B0E066E050E076EA1
:1032E000010E086EABEC1DF0010E046E010E55ECE4
:1032F0001DF00C0E046E85EC1DF0000E03EC1EF0AC
:1033000008EC1EF0000E03EC1EF0010E046E020E1F
:1033100055EC1DF0010E046E85EC1DF0000E03EC63
:103320001EF008EC1EF0000E03EC1EF0000E146EF2
:10333000000E136E000E176E000E166E000E156E48
:10334000CFA8A5EF19F0A8EF19F0010EA9EF19F019
:10335000000E186E15501818D8B4B1EF19F0B3EF6D
:1033600019F0E3EF19F01804D8A4B9EF19F0BBEF86
:1033700019F0C9EF19F0C396020E016E460EE9EC82
:1033800019F0010E136E010E166E010E176ED5EFB9
:1033900019F0C386020E016E460E75EC15F0000E94
:1033A000136E000E166E000E176E130E066E050ECF
:1033B000076E020E086E160E096E050E0A6E020EDC
:1033C0000B6E71EC1CF018C515F5A0EF19F0FEEFAF
:1033D000FFF0046E4CEF1AF001C502F5010E036E0A
:1033E000022AF5EF19F0D8900336022EF3EF19F008
:1033F0000350BE1271EF1AF001C502F5010E036E03
:10340000022A05EF1AF0D8900336022E03EF1AF0C5
:103410000350BF1271EF1AF001C502F5010E036EE1
:10342000022A15EF1AF0D8900336022E13EF1AF085
:103430000350C01271EF1AF001C502F5010E036EC0
:10344000022A25EF1AF0D8900336022E23EF1AF045
:103450000350C11271EF1AF001C502F5010E036E9F
:10346000022A35EF1AF0D8900336022E33EF1AF005
:103470000350C21271EF1AF001C502F5010E036E7E
:10348000022A45EF1AF0D8900336022E43EF1AF0C5
:103490000350C31271EF1AF00450026E036A035016
:1034A000000AD8B456EF1AF071EF1AF00250410A30
:1034B000D8B4ECEF19F0030AD8B4FCEF19F0010A04
:1034C000D8B40CEF1AF0070AD8B41CEF1AF0010AAE
:1034D000D8B42CEF1AF0030AD8B43CEF1AF071EF0D
:1034E0001AF01200046ED5EF1AF001C502F5010EB4
:1034F000036E022A7EEF1AF0D8900336022E7CEF7C
:103500001AF00350C612FAEF1AF001C502F5010EC7
:10351000036E022A8EEF1AF0D8900336022E8CEF3B
:103520001AF00350C712FAEF1AF001C502F5010EA6
:10353000036E022A9EEF1AF0D8900336022E9CEFFB
:103540001AF00350C812FAEF1AF001C502F5010E85
:10355000036E022AAEEF1AF0D8900336022EACEFBB
:103560001AF00350C912FAEF1AF001C502F5010E64
:10357000036E022ABEEF1AF0D8900336022EBCEF7B
:103580001AF00350CA12FAEF1AF001C502F5010E43
:10359000036E022ACEEF1AF0D8900336022ECCEF3B
:1035A0001AF00350CB12FAEF1AF00450026E036ABD
:1035B0000350000AD8B4DFEF1AF0FAEF1AF0025005
:1035C000410AD8B475EF1AF0030AD8B485EF1AF09F
:1035D000010AD8B495EF1AF0070AD8B4A5EF1AF08B
:1035E000010AD8B4B5EF1AF0030AD8B4C5EF1AF03F
:1035F000FAEF1AF01200036EC080016A03AE01D028
:10360000012A010E011601320132C35001187F0B4D
:103610000118C36E03C501F5060E026ED890013283
:10362000022E0EEF1BF0010E0116013A0146014673
:10363000C3500118BF0B0118C36E03C501F5050E79
:10364000026ED8900132022E21EF1BF0010E0116FE
:10365000013A0146C3500118DF0B0118C36E03C5C0
:1036600001F5013A0F0E0116010E0116013AC35081
:103670000118EF0B0118C36EFCEC1DF003C501F53A
:10368000D8900132D8900132D8900132010E011643
:1036900001320132C35001187F0B0118C36E03C5FC
:1036A00001F5D8900132D8900132010E0116013A8D
:1036B00001460146C3500118BF0B0118C36E03C574
:1036C00001F5D8900132010E0116013A0146C350AE
:1036D0000118DF0B0118C36E03C501F5010E0116B9
:1036E000013AC3500118EF0B0118C36EFCEC1DF03A
:1036F0001200036EC090016A03AE01D0012A010ED0
:10370000011601320132C35001187F0B0118C36E3C
:1037100003C501F5060E026ED8900132022E8CEF21
:103720001BF0010E0116013A01460146C350011873
:10373000BF0B0118C36E03C501F5050E026ED890CC
:103740000132022E9FEF1BF0010E0116013A0146D5
:10375000C3500118DF0B0118C36E03C501F5013A10
:103760000F0E0116010E0116013AC3500118EF0B9E
:103770000118C36EFCEC1DF003C501F5D8900132B1
:10378000D8900132D8900132010E01160132013277
:10379000C35001187F0B0118C36E03C501F5D89003
:1037A0000132D8900132010E0116013A014601465C
:1037B000C3500118BF0B0118C36E03C501F5D890A3
:1037C0000132010E0116013A0146C3500118DF0B08
:1037D0000118C36E03C501F5010E0116013AC3506D
:1037E0000118EF0B0118C36EFCEC1DF012000C6EFB
:1037F0000650D8B4FEEF1BF000EF1CF007EF1CF0F2
:1038000005C501F50C5072EC1AF00CEF1CF005C563
:1038100001F50C50B1EC17F00750D8B412EF1CF0C2
:1038200014EF1CF01BEF1CF005C501F50C504BEC20
:1038300014F020EF1CF005C501F50C50CFEC18F08A
:103840000850D8B426EF1CF028EF1CF02FEF1CF026
:1038500005C501F50C5022EC17F034EF1CF005C53E
:1038600001F50C50E0EC14F00950D8B43AEF1CF01C
:103870003CEF1CF043EF1CF005C501F50C508CEC3F
:1038800012F048EF1CF005C501F50C5004EC16F0E1
:103890000A50D8B44EEF1CF050EF1CF057EF1CF05C
:1038A00005C501F50C5093EC16F05CEF1CF005C556
:1038B00001F50C5021EC13F00B50D8B462EF1CF062
:1038C00064EF1CF06BEF1CF005C501F50C50B6EC75
:1038D00013F070EF1CF005C501F50C5040EC18F02A
:1038E00012000B0E046E010E55EC1DF0000E0C6E56
:1038F00093EF1CF00C500624D96E000E0720DA6EF0
:10390000DF50D8A486EF1CF088EF1CF08DEF1CF080
:10391000000E03EC1EF090EF1CF0010E03EC1EF005
:1039200008EC1EF00C2A08500C5CD8A09AEF1CF092
:103930009CEF1CF07AEF1CF00B0E046E020E55EC9F
:103940001DF0000E0D6EBEEF1CF00D500924D96E57
:10395000000E0A20DA6EDF50D8A4B1EF1CF0B3EFEE
:103960001CF0B8EF1CF0000E03EC1EF0BBEF1CF0D7
:10397000010E03EC1EF008EC1EF00D2A0B500D5C3E
:10398000D8A0C5EF1CF0C7EF1CF0A5EF1CF012008B
:10399000030E056E000E066E010E076E000E086E19
:1039A000010E096E010E0A6E010E0B6E460EF7EC4B
:1039B0001BF0C386040E056E010E066E010E076E27
:1039C000010E086E010E096E010E0A6E010E0B6EDD
:1039D000420EF7EC1BF0020E056E000E066E010E95
:1039E000076E000E086E010E096E010E0A6E010EC2
:1039F0000B6E460EF7EC1BF0020E016E460E75ECD8
:103A000015F0040E056E010E066E010E076E010E16
:103A1000086E010E096E010E0A6E010E0B6E420E4B
:103A2000F7EC1BF01200C890C090C892C092CB98DF
:103A3000C398CB9AC39ACB9CC39CCB9EC39E050EC6
:103A4000066EDF0E056EBC0EE82EFED7052EFCD7E7
:103A5000062EFAD7C39EC39CC38AC388FCEC1DF014
:103A60007D0E056EAC0EE82EFED7052EFCD7FCECC5
:103A70001DF0040E056E1C0EE82EFED7052EFCD799
:103A800000D0FCEC1DF0C39EC39CC38AC398FCEC21
:103A90001DF0280E79EC1BF01A5079EC1BF0195030
:103AA00079EC1BF0E4EC1DF01200056E0504D8A4BF
:103AB0005CEF1DF05EEF1DF060EF1DF07F0E042641
:103AC000020E0518D8A467EF1DF069EF1DF06BEF2B
:103AD0001DF0BF0E0426030E0518D8A472EF1DF0CA
:103AE00074EF1DF076EF1DF0930E0426040E0518FA
:103AF000D8A47DEF1DF07FEF1DF081EF1DF0D30EF8
:103B00000426045079EC1BF01200000E066E97EFAD
:103B10001DF004500624056E05C5F6F4250EF76E5B
:103B2000000EF86E0800F550FBEC1AF0062A04505F
:103B30000624056E05C5F6F4250EF76E000EF86E28
:103B40000800F5500009D8A4A8EF1DF0AAEF1DF059
:103B500089EF1DF012000850080DF350400F79EC6A
:103B60001BF0000E096E09500624D96E000E0720C6
:103B7000DA6EDF50FBEC1AF0092A070E0964C3EF76
:103B80001DF0C5EF1DF0B3EF1DF0010E046E010E28
:103B900055EC1DF01200E60EF66E3B0EF76E000EB1
:103BA000F86E01EE19F110EE12F00900F5C4EEF412
:103BB000E550E150FAE101EE2BF1080EEE6AE8065D
:103BC000FDE100015EEF19F0010E79EC1BF02F0E04
:103BD000046E8A0EE82EFED7042EFCD700D01950B2
:103BE00079EC1BF01200060C1F1F1F1F1F1F1F1F49
:103BF0001F1111111111111FC082C00E00D0E82E2B
:103C0000FDD7C0921200046E0450FBEC1AF01200B3
:103C1000140E79EC1BF01200300E0001AD6F120093
:020000040001F9
:04FFFC00CBEF1DF03A
:020000040030CA
:080000008CFD3FFF9FFFDFFFB5
:01000900FFF7
:00000001FF
