:0400000081EF18F084
:1025000000486F6C61204D756E646F202575200D3D
:032510000A0000BE
:10300800400C400C400C400C400C400C400C400C58
:10301800400C400C400C400C400C400C400C400C48
:10302800400C400C400C400C400C400C400C400C38
:10303800400C400C400C400C400C400C400C400C28
:103048005511400C400C400C400C400C400C400CFE
:10305800400C400C400C400C400C400C400C400C08
:10306800400C400C400C400C400C400C400C400CF8
:10307800400C400C400C400C400C400C400C400CE8
:10308800400C400C400C400C400C400C400C400CD8
:10309800400C400C400C400C400C400C400C400CC8
:1030A800400C400C400C400C400C400C400C400CB8
:1030B800400C400C400C400C400C400C400C400CA8
:1030C800400C400C400C400C400C400C400C400C98
:1030D800400C400C400C400C400C400C400C400C88
:1030E800400C400C400C400C400C400C400C400C78
:1030F800400C400C400C400CFF00EBEF22F00FC5D9
:10310800D9F410C5DAF4DFC4F6F4250EF76E000E14
:10311800F86E0800F550250AD8A495EF18F097EF37
:1031280018F03FEF19F00FC5D9F410C5DAF4DF2A0B
:10313800000E4F6E000E4E6E4EC558F55068516821
:103148000FC5D9F410C5DAF4DF50196E19C5F6F4B5
:10315800250EF76E000EF86E0800F550750AD8A413
:10316800B8EF18F0BAEF18F038EF19F011C5D9F424
:1031780012C5DAF4DFC413F5020EDE26DFC414F537
:10318800000EDD2213C5D9F414C5DAF4DEC415F532
:10319800DDC416F519280FC5D9F410C5DAF4DF6EA9
:1031A8002AEF19F0200E1A6E1A062E0E1A24D96E5E
:1031B800DA6A050EDA2215C502F516C503F5000E02
:1031C800056E0A0E046E50EC22F00250300FDF6ECE
:1031D80015C502F516C503F5000E056E0A0E046E38
:1031E800E0EC21F002C515F503C516F515501610CB
:1031F800D8B401EF19F003EF19F01FEF19F01A50C6
:10320800D8A409EF19F00BEF19F0D8EF18F01FEF59
:1032180019F02E0E1A24D96EDA6A050EDA22DF505A
:10322800136E1350046E056A0DC506F50EC507F535
:103238009CEC20F01A2A200E1A18D8A426EF19F0B0
:1032480028EF19F00DEF19F055EF19F019C5F6F43C
:10325800250EF76E000EF86E0800F550750AD8B402
:10326800D6EF18F038EF19F00FC5D9F410C5DAF415
:10327800DF2A55EF19F00FC5D9F410C5DAF4DFC409
:10328800F6F4250EF76E000EF86E0800F550046E81
:10329800056A0DC506F50EC507F59CEC20F038EF5C
:1032A80019F01200056EC5EF19F002C503F5010EFD
:1032B800046E032A62EF19F0D8900436032E60EFEB
:1032C80019F00450FF0A04010417EAEF19F002C5C7
:1032D80003F5010E046E032A74EF19F0D890043632
:1032E800032E72EF19F00450FF0A04010C17EAEFDD
:1032F80019F002C503F5010E046E032A86EF19F0D2
:10330800D8900436032E84EF19F00450FF0A040104
:103318001417EAEF19F002C503F5010E046E032A2B
:1033280098EF19F0D8900436032E96EF19F0045050
:10333800FF0A04011C17EAEF19F002C503F5010E94
:10334800046E032AAAEF19F0D8900436032EA8EFCA
:1033580019F00450FF0A04012417EAEF19F002C516
:1033680003F5010E046E032ABCEF19F0D890043659
:10337800032EBAEF19F00450FF0A04012C17EAEFE4
:1033880019F00550036E046A0450000AD8B4CFEF50
:1033980019F0EAEF19F00350410AD8B459EF19F0BF
:1033A800030AD8B46BEF19F0010AD8B47DEF19F00D
:1033B800070AD8B48FEF19F0010AD8B4A1EF19F0B1
:1033C800030AD8B4B3EF19F0EAEF19F01200056E4A
:1033D8005AEF1AF002C503F5010E046E032AF7EF3F
:1033E80019F0D8900436032EF5EF19F00450FF0AAF
:1033F800040103177FEF1AF002C503F5010E046EEE
:10340800032A09EF1AF0D8900436032E07EF1AF0B2
:103418000450FF0A04010B177FEF1AF002C503F5E9
:10342800010E046E032A1BEF1AF0D8900436032EFF
:1034380019EF1AF00450FF0A040113177FEF1AF06E
:1034480002C503F5010E046E032A2DEF1AF0D89079
:103458000436032E2BEF1AF00450FF0A04011B1741
:103468007FEF1AF002C503F5010E046E032A3FEF41
:103478001AF0D8900436032E3DEF1AF00450FF0AD4
:10348800040123177FEF1AF002C503F5010E046E3D
:10349800032A51EF1AF0D8900436032E4FEF1AF092
:1034A8000450FF0A04012B177FEF1AF00550036E32
:1034B800046A0450000AD8B464EF1AF07FEF1AF0D7
:1034C8000350410AD8B4EEEF19F0030AD8B400EF5C
:1034D8001AF0010AD8B412EF1AF0070AD8B424EF88
:1034E8001AF0010AD8B436EF1AF0030AD8B448EF34
:1034F8001AF07FEF1AF01200056EEFEF1AF002C50E
:1035080003F5010E046E032A8CEF1AF0D8900436E6
:10351800032E8AEF1AF00450FF0A0401021714EF71
:103528001BF002C503F5010E046E032A9EEF1AF084
:10353800D8900436032E9CEF1AF00450FF0A0401B9
:103548000A1714EF1BF002C503F5010E046E032AD7
:10355800B0EF1AF0D8900436032EAEEF1AF00450EC
:10356800FF0A0401121714EF1BF002C503F5010E40
:10357800046E032AC2EF1AF0D8900436032EC0EF67
:103588001AF00450FF0A04011A1714EF1BF002C5C1
:1035980003F5010E046E032AD4EF1AF0D89004360E
:1035A800032ED2EF1AF00450FF0A0401221714EF79
:1035B8001BF002C503F5010E046E032AE6EF1AF0AC
:1035C800D8900436032EE4EF1AF00450FF0A0401E1
:1035D8002A1714EF1BF00550036E046A0450000A02
:1035E800D8B4F9EF1AF014EF1BF00350410AD8B41D
:1035F80083EF1AF0030AD8B495EF1AF0010AD8B489
:10360800A7EF1AF0070AD8B4B9EF1AF0010AD8B42C
:10361800CBEF1AF0030AD8B4DDEF1AF014EF1BF061
:103628001200056E84EF1BF002C503F5010E046E4F
:10363800032A21EF1BF0D8900436032E1FEF1BF04E
:103648000450FF0A04010017A9EF1BF002C503F597
:10365800010E046E032A33EF1BF0D8900436032EB4
:1036680031EF1BF00450FF0A04010817A9EF1BF003
:1036780002C503F5010E046E032A45EF1BF0D8902E
:103688000436032E43EF1BF00450FF0A0401101701
:10369800A9EF1BF002C503F5010E046E032A57EFCC
:1036A8001BF0D8900436032E55EF1BF00450FF0A88
:1036B80004011817A9EF1BF002C503F5010E046EEB
:1036C800032A69EF1BF0D8900436032E67EF1BF02E
:1036D8000450FF0A04012017A9EF1BF002C503F5E7
:1036E800010E046E032A7BEF1BF0D8900436032EDC
:1036F80079EF1BF00450FF0A04012817A9EF1BF00B
:103708000550036E046A0450000AD8B48EEF1BF00B
:10371800A9EF1BF00350410AD8B418EF1BF0030AB5
:10372800D8B42AEF1BF0010AD8B43CEF1BF0070A03
:10373800D8B44EEF1BF0010AD8B460EF1BF0030AAF
:10374800D8B472EF1BF0A9EF1BF01200056E19EF49
:103758001CF002C503F5010E046E032AB6EF1BF038
:10376800D8900436032EB4EF1BF00450FF0A04016E
:1037780001173EEF1CF002C503F5010E046E032A83
:10378800C8EF1BF0D8900436032EC6EF1BF0045088
:10379800FF0A040109173EEF1CF002C503F5010EEC
:1037A800046E032ADAEF1BF0D8900436032ED8EF04
:1037B8001BF00450FF0A040111173EEF1CF002C56C
:1037C80003F5010E046E032AECEF1BF0D8900436C3
:1037D800032EEAEF1BF00450FF0A040119173EEF0D
:1037E8001CF002C503F5010E046E032AFEEF1BF060
:1037F800D8900436032EFCEF1BF00450FF0A040196
:1038080021173EEF1CF002C503F5010E046E032AD2
:1038180010EF1CF0D8900436032E0EEF1CF0045065
:10382800FF0A040129173EEF1CF00550036E046AD5
:103838000450000AD8B423EF1CF03EEF1CF00350EC
:10384800410AD8B4ADEF1BF0030AD8B4BFEF1BF0A0
:10385800010AD8B4D1EF1BF0070AD8B4E3EF1BF084
:10386800010AD8B4F5EF1BF0030AD8B407EF1CF02F
:103878003EEF1CF01200056EA8EF1CF002C503F520
:10388800010E046E032A4BEF1CF0D8900436032E69
:1038980049EF1CF0045004010413CDEF1CF002C5DD
:1038A80003F5010E046E032A5CEF1CF0D890043671
:1038B800032E5AEF1CF0045004010C13CDEF1CF03A
:1038C80002C503F5010E046E032A6DEF1CF0D890B3
:1038D8000436032E6BEF1CF0045004011413CDEFD3
:1038E8001CF002C503F5010E046E032A7EEF1CF0DE
:1038F800D8900436032E7CEF1CF0045004011C13EE
:10390800CDEF1CF002C503F5010E046E032A8FEFFC
:103918001CF0D8900436032E8DEF1CF004500401DF
:103928002413CDEF1CF002C503F5010E046E032A23
:10393800A0EF1CF0D8900436032E9EEF1CF0045024
:1039480004012C13CDEF1CF00550036E046A0450DB
:10395800000AD8B4B2EF1CF0CDEF1CF00350410AB6
:10396800D8B442EF1CF0030AD8B453EF1CF0010A94
:10397800D8B464EF1CF0070AD8B475EF1CF0010A3C
:10398800D8B486EF1CF0030AD8B497EF1CF0CDEF3B
:103998001CF01200056E37EF1DF002C503F5010E8D
:1039A800046E032ADAEF1CF0D8900436032ED8EF01
:1039B8001CF00450040103135CEF1DF002C503F56D
:1039C800010E046E032AEBEF1CF0D8900436032E88
:1039D800E9EF1CF0045004010B135CEF1DF002C565
:1039E80003F5010E046E032AFCEF1CF0D890043690
:1039F800032EFAEF1CF00450040113135CEF1DF0C2
:103A080002C503F5010E046E032A0DEF1DF0D890D0
:103A18000436032E0BEF1DF0045004011B135CEF5A
:103A28001DF002C503F5010E046E032A1EEF1DF0FA
:103A3800D8900436032E1CEF1DF004500401231304
:103A48005CEF1DF002C503F5010E046E032A2FEF8B
:103A58001DF0D8900436032E2DEF1DF004500401FC
:103A68002B135CEF1DF00550036E046A0450000A26
:103A7800D8B441EF1DF05CEF1DF00350410AD8B4F3
:103A8800D1EF1CF0030AD8B4E2EF1CF0010AD8B455
:103A9800F3EF1CF0070AD8B404EF1DF0010AD8B4FC
:103AA80015EF1DF0030AD8B426EF1DF05CEF1DF0EA
:103AB8001200056EC6EF1DF002C503F5010E046E77
:103AC800032A69EF1DF0D8900436032E67EF1DF026
:103AD800045004010113EBEF1DF002C503F5010EBC
:103AE800046E032A7AEF1DF0D8900436032E78EF7F
:103AF8001DF0045004010913EBEF1DF002C503F596
:103B0800010E046E032A8BEF1DF0D8900436032EA5
:103B180089EF1DF0045004011113EBEF1DF002C5ED
:103B280003F5010E046E032A9CEF1DF0D8900436AD
:103B3800032E9AEF1DF0045004011913EBEF1DF04A
:103B480002C503F5010E046E032AADEF1DF0D890EF
:103B58000436032EABEF1DF0045004012113EBEFE4
:103B68001DF002C503F5010E046E032ABEEF1DF019
:103B7800D8900436032EBCEF1DF00450040129131D
:103B8800EBEF1DF00550036E046A0450000AD8B428
:103B9800D0EF1DF0EBEF1DF00350410AD8B460EFF1
:103BA8001DF0030AD8B471EF1DF0010AD8B482EFF2
:103BB8001DF0070AD8B493EF1DF0010AD8B4A4EF9A
:103BC8001DF0030AD8B4B5EF1DF0EBEF1DF012009D
:103BD800056E55EF1EF002C503F5010E046E032AAB
:103BE800F8EF1DF0D8900436032EF6EF1DF00450C0
:103BF800FF0AC6167AEF1EF002C503F5010E046E21
:103C0800032A09EF1EF0D8900436032E07EF1EF0A2
:103C18000450FF0AC7167AEF1EF002C503F5010E1D
:103C2800046E032A1AEF1EF0D8900436032E18EFFC
:103C38001EF00450FF0AC8167AEF1EF002C503F5FD
:103C4800010E046E032A2BEF1EF0D8900436032EC3
:103C580029EF1EF00450FF0AC9167AEF1EF002C5BC
:103C680003F5010E046E032A3CEF1EF0D8900436CB
:103C7800032E3AEF1EF00450FF0ACA167AEF1EF020
:103C880002C503F5010E046E032A4DEF1EF0D8900D
:103C98000436032E4BEF1EF00450FF0ACB167AEFC2
:103CA8001EF00550036E046A0450000AD8B45FEF92
:103CB8001EF07AEF1EF00350410AD8B4EFEF1DF062
:103CC800030AD8B400EF1EF0010AD8B411EF1EF0B1
:103CD800070AD8B422EF1EF0010AD8B433EF1EF059
:103CE800030AD8B444EF1EF07AEF1EF01200056EF6
:103CF800E4EF1EF002C503F5010E046E032A87EFF8
:103D08001EF0D8900436032E85EF1EF004500401EF
:103D1800021309EF1FF002C503F5010E046E032A12
:103D280098EF1EF0D8900436032E96EF1EF004503C
:103D380004010A1309EF1FF002C503F5010E046E12
:103D4800032AA9EF1EF0D8900436032EA7EF1EF021
:103D580004500401121309EF1FF002C503F5010E08
:103D6800046E032ABAEF1EF0D8900436032EB8EF7B
:103D78001EF0045004011A1309EF1FF002C503F5E1
:103D8800010E046E032ACBEF1EF0D8900436032EE2
:103D9800C9EF1EF004500401221309EF1FF002C5F9
:103DA80003F5010E046E032ADCEF1EF0D8900436EA
:103DB800032EDAEF1EF0045004012A1309EF1FF056
:103DC8000550036E046A0450000AD8B4EEEF1EF0E2
:103DD80009EF1FF00350410AD8B47EEF1EF0030A22
:103DE800D8B48FEF1EF0010AD8B4A0EF1EF0070A6E
:103DF800D8B4B1EF1EF0010AD8B4C2EF1EF0030A1E
:103E0800D8B4D3EF1EF009EF1FF01200056E73EF60
:103E18001FF002C503F5010E046E032A16EF1FF00A
:103E2800D8900436032E14EF1FF004500401001339
:103E380098EF1FF002C503F5010E046E032A27EF61
:103E48001FF0D8900436032E25EF1FF0045004010C
:103E5800081398EF1FF002C503F5010E046E032A3C
:103E680038EF1FF0D8900436032E36EF1FF00450B9
:103E78000401101398EF1FF002C503F5010E046E3C
:103E8800032A49EF1FF0D8900436032E47EF1FF09E
:103E980004500401181398EF1FF002C503F5010E32
:103EA800046E032A5AEF1FF0D8900436032E58EFF9
:103EB8001FF004500401201398EF1FF002C503F50A
:103EC800010E046E032A6BEF1FF0D8900436032E00
:103ED80069EF1FF004500401281398EF1FF00550F4
:103EE800036E046A0450000AD8B47DEF1FF098EFFF
:103EF8001FF00350410AD8B40DEF1FF0030AD8B4DD
:103F08001EEF1FF0010AD8B42FEF1FF0070AD8B42C
:103F180040EF1FF0010AD8B451EF1FF0030AD8B4DC
:103F280062EF1FF098EF1FF01200056EFCEF1FF014
:103F380002C503F5010E046E032AA5EF1FF0D89001
:103F48000436032EA3EF1FF00450C61221EF20F011
:103F580002C503F5010E046E032AB5EF1FF0D890D1
:103F68000436032EB3EF1FF00450C71221EF20F0E0
:103F780002C503F5010E046E032AC5EF1FF0D890A1
:103F88000436032EC3EF1FF00450C81221EF20F0AF
:103F980002C503F5010E046E032AD5EF1FF0D89071
:103FA8000436032ED3EF1FF00450C91221EF20F07E
:103FB80002C503F5010E046E032AE5EF1FF0D89041
:103FC8000436032EE3EF1FF00450CA1221EF20F04D
:103FD80002C503F5010E046E032AF5EF1FF0D89011
:103FE8000436032EF3EF1FF00450CB1221EF20F01C
:103FF8000550036E046A0450000AD8B406EF20F096
:1040080021EF20F00350410AD8B49CEF1FF0030AB7
:10401800D8B4ACEF1FF0010AD8B4BCEF1FF0070A00
:10402800D8B4CCEF1FF0010AD8B4DCEF1FF0030AB4
:10403800D8B4ECEF1FF021EF20F012000D6E0750FE
:10404800D8B429EF20F02BEF20F032EF20F006C58E
:1040580002F50D5099EC1FF037EF20F006C502F578
:104068000D50ECEC1DF00850D8B43DEF20F03FEFB8
:1040780020F046EF20F006C502F50D5015EC1BF0B8
:104088004BEF20F006C502F50D500AEC1FF0095061
:10409800D8B451EF20F053EF20F05AEF20F006C5C6
:1040A80002F50D505DEC1DF05FEF20F006C502F53E
:1040B8000D50AAEC1BF00A50D8B465EF20F067EF5A
:1040C80020F06EEF20F006C502F50D5056EC19F001
:1040D80073EF20F006C502F50D503FEC1CF00B50B5
:1040E800D8B479EF20F07BEF20F082EF20F006C5FE
:1040F80002F50D50CEEC1CF087EF20F006C502F556
:104108000D50EBEC19F00C50D8B48DEF20F08FEF78
:1041180020F096EF20F006C502F50D5080EC1AF05D
:104128009BEF20F006C502F50D507BEC1EF0120047
:1041380006500710D8B4A3EF20F0A5EF20F0AEEF9B
:1041480020F006500710D8A4ACEF20F0AEEF20F016
:10415800B3EF20F0045011EC23F000EF21F020EE33
:104168000AF00650D9260750DA22DE50DE10D8B4FD
:10417800C0EF20F0C2EF20F0DDEF20F020EE0AF0D3
:104188000650D9260750DA2210EE03F00650E12631
:104198000750E222DE50E65CE650800A0C6EDE50E4
:1041A800800A0C58D8B0DBEF20F0DDEF20F000EFEC
:1041B80021F020EE03F00650D9260750DA22DEC49B
:1041C80008F5DDC409F506C5D9F407C5DAF4DEC477
:1041D8000AF5DDC40BF508500A24D96E09500B20E6
:1041E800DA6E04C5DFF420EE03F00650D926075036
:1041F800DA22DE2A000EDD221200000E0A6E000E00
:104208000B6E000E0C6E000E0D6E06500710081097
:104218000910D8B412EF21F014EF21F04AEF21F081
:10422800010E0E6E1EEF21F0D890063607360836BE
:1042380009360E2A09AE23EF21F025EF21F018EFF9
:1042480021F0D8900A360B360C360D360650025C33
:10425800075003580850045809500558D8A037EF9C
:1042680021F039EF21F042EF21F00650025E0750AD
:10427800035A0850045A0950055A0A80D89009323E
:104288000832073206320E2E25EF21F00AC502F554
:104298000BC503F50CC504F50DC505F512000201A3
:1042A800AB9F000E026E090E036E3D0E046E000EEB
:1042B800056E0FC506F510C507F511C508F512C539
:1042C80009F501EC21F0FF0E02240201AE6FFF0E8A
:1042D8000320AF6FF00EAB17AD95AC8FAB8BAB89EE
:1042E800200E296F000E066E000E076E010E086E76
:1042F800000E096E010E0A6E010E0B6E010E0C6E99
:10430800460E22EC20F002017251C70B2809726F89
:104318007251F80B0109726F010E066E010E076EDD
:10432800010E086E000E096E010E0A6E010E0B6E6C
:10433800010E0C6E460E22EC20F0120016EC23F053
:104348001AEC22F0800E0F6E250E106E000E116E04
:10435800000E126E53EC21F0DAEC22F0000E2D6EF6
:10436800010E216E2DC522F5236AC9EC22F0110E2B
:104378002C6E3C0E2B6ECB0EE82EFED72B2EFCD7C8
:104388002C2EFAD700002D2A090E2D64CEEF21F02D
:10439800D0EF21F0B4EF21F0520E2C6E2B0E2B6EC5
:1043A800000EE82EFED72B2EFCD72C2EFAD700D0E5
:1043B800B2EF21F081EF18F0000E076E000E066EC6
:1043C80004500510D8B4EBEF21F0EDEF21F015EF14
:1043D80022F0010E086EF5EF21F0D890043605366C
:1043E800082A05AEFAEF21F0FCEF21F0F1EF21F0F9
:1043F800D890063607360450025C05500358D8A0FA
:1044080008EF22F00AEF22F00FEF22F00450025ECC
:104418000550035A0680D89005320432082EFCEF66
:1044280021F006C502F507C503F51200030E066E56
:10443800000E076E010E086E000E096E010E0A6E60
:10444800010E0B6E010E0C6E460E22EC20F0C38698
:10445800000E066E000E076E010E086E000E096E45
:10446800010E0A6E010E0B6E010E0C6E440E22EC4C
:1044780020F0C394000E066E010E076E010E086E42
:10448800010E096E010E0A6E010E0B6E010E0C6E06
:10449800420E22EC20F0120004500510D8B457EF59
:1044A80022F059EF22F07DEF22F0010E066E61EF47
:1044B80022F0D89004360536062A05AE66EF22F0BB
:1044C80068EF22F05DEF22F00450025C05500358BB
:1044D800D8A071EF22F073EF22F077EF22F00450AA
:1044E800025E0550035AD89005320432062E68EF52
:1044F80022F002C502F503C503F512001DC520F51B
:1045080094EF22F01BC50DF51CC50EF5200E0F6E9D
:10451800050E106E1EC511F51FC512F583EC18F0B7
:1045280020C5F6F4250EF76E000EF86E0800F5505B
:104538000009D8A4A2EF22F0A4EF22F086EF22F01F
:0A454800000E1C6E000E1B6E120028
:10455400B2A0AFEF22F0B1EF22F0C8EF22F007ECE7
:1045640023F0016EBCEF22F0C396C7EF22F0C3869E
:10457400C7EF22F00150610AD8B4B6EF22F0030A63
:10458400D8B4B9EF22F0C7EF22F0B2901100220E96
:10459400246E050E256E000E1B6E000E1C6E21C5CA
:1045A4001DF5240E1E6E050E1F6E82EC22F0120005
:1045B400D68AD68ED68CB280A28003016681D69E1E
:1045C400000E04015F6F300E5E6F080E5D6FD68EB5
:1045D400120001EE2EF12B0EEE6AE806FDE1040155
:1045E400080E5D6F300E5E6F000E5F6F0001A2EF6C
:1045F40021F0026E0201B2AF02EF23F004EF23F0C8
:10460400FCEF22F002C5A3F212000201B0B30DEFD9
:1046140023F00FEF23F007EF23F0A1511200036EF4
:104624000350FBEC22F01200300E0001AD6F1200BB
:020000040030CA
:080000008CFD3FFF9FFFDFFFB5
:01000900FFF7
:00000001FF
