:04000000FEEFFFF020
:102500000000BBEC12F0A7EC12F0C396C190C182A0
:10251000A30E076E570E066E020EE82EFED7062E8D
:10252000FCD7072EFAD700D0C386C180C192A30E74
:10253000076E570E066E020EE82EFED7062EFCD74B
:10254000072EFAD700D085EF12F0FEEFFFF004015E
:1025500028972B872C972A972997CB9618911B8120
:102560001C911A911991C99018931B831C931A837B
:102570001993C9921200300E0001AD6F12000001D4
:0425800081EF12F0E5
:020000040001F9
:04FFFC00BFEF12F051
:020000040030CA
:080000008CFD3FFF9FFFDFFFB5
:01000900FFF7
:00000001FF
