:04000000FEEFFFF020
:1025000000407924301912027800903F065B4F6634
:102510006D7D077F6700046EFAEF12F001C502F5CA
:10252000010E036E022A97EF12F0D8900336022EA6
:1025300095EF12F00350FF0A040104171FEF13F088
:1025400001C502F5010E036E022AA9EF12F0D89020
:102550000336022EA7EF12F00350FF0A04010C17F6
:102560001FEF13F001C502F5010E036E022ABBEF47
:1025700012F0D8900336022EB9EF12F00350FF0A82
:10258000040114171FEF13F001C502F5010E036ECD
:10259000022ACDEF12F0D8900336022ECBEF12F0C4
:1025A0000350FF0A04011C171FEF13F001C502F5C9
:1025B000010E036E022ADFEF12F0D8900336022ECE
:1025C000DDEF12F00350FF0A040124171FEF13F090
:1025D00001C502F5010E036E022AF1EF12F0D89048
:1025E0000336022EEFEF12F00350FF0A04012C17FE
:1025F0001FEF13F00450026E036A0350000AD8B4B0
:1026000004EF13F01FEF13F00250410AD8B48EEF1D
:1026100012F0030AD8B4A0EF12F0010AD8B4B2EF56
:1026200012F0070AD8B4C4EF12F0010AD8B4D6EFFA
:1026300012F0030AD8B4E8EF12F01FEF13F0120003
:10264000046E8FEF13F001C502F5010E036E022A2E
:102650002CEF13F0D8900336022E2AEF13F003501C
:10266000FF0A04010317B4EF13F001C502F5010ED0
:10267000036E022A3EEF13F0D8900336022E3CEF91
:1026800013F00350FF0A04010B17B4EF13F001C558
:1026900002F5010E036E022A50EF13F0D8900336B4
:1026A000022E4EEF13F00350FF0A04011317B4EF8C
:1026B00013F001C502F5010E036E022A62EF13F05A
:1026C000D8900336022E60EF13F00350FF0A040186
:1026D0001B17B4EF13F001C502F5010E036E022AB9
:1026E00074EF13F0D8900336022E72EF13F00350FC
:1026F000FF0A04012317B4EF13F001C502F5010E20
:10270000036E022A86EF13F0D8900336022E84EF70
:1027100013F00350FF0A04012B17B4EF13F0045019
:10272000026E036A0350000AD8B499EF13F0B4EFB5
:1027300013F00250410AD8B423EF13F0030AD8B4BF
:1027400035EF13F0010AD8B447EF13F0070AD8B4F5
:1027500059EF13F0010AD8B46BEF13F0030AD8B4A1
:102760007DEF13F0B4EF13F01200046E24EF14F0B9
:1027700001C502F5010E036E022AC1EF13F0D890D5
:102780000336022EBFEF13F00350FF0A04010217B5
:1027900049EF14F001C502F5010E036E022AD3EFD2
:1027A00013F0D8900336022ED1EF13F00350FF0A36
:1027B00004010A1749EF14F001C502F5010E036E7A
:1027C000022AE5EF13F0D8900336022EE3EF13F060
:1027D0000350FF0A0401121749EF14F001C502F576
:1027E000010E036E022AF7EF13F0D8900336022E83
:1027F000F5EF13F00350FF0A04011A1749EF14F024
:1028000001C502F5010E036E022A09EF14F0D890FB
:102810000336022E07EF14F00350FF0A04012217BB
:1028200049EF14F001C502F5010E036E022A1BEFF9
:1028300014F0D8900336022E19EF14F00350FF0A5B
:1028400004012A1749EF14F00450026E036A035082
:10285000000AD8B42EEF14F049EF14F00250410AE8
:10286000D8B4B8EF13F0030AD8B4CAEF13F0010AD2
:10287000D8B4DCEF13F0070AD8B4EEEF13F0010A76
:10288000D8B400EF14F0030AD8B412EF14F049EFF3
:1028900014F01200046EB9EF14F001C502F5010E38
:1028A000036E022A56EF14F0D8900336022E54EF2E
:1028B00014F00350FF0A04010017DEEF14F001C505
:1028C00002F5010E036E022A68EF14F0D890033669
:1028D000022E66EF14F00350FF0A04010817DEEF22
:1028E00014F001C502F5010E036E022A7AEF14F00E
:1028F000D8900336022E78EF14F00350FF0A04013B
:102900001017DEEF14F001C502F5010E036E022A66
:102910008CEF14F0D8900336022E8AEF14F0035097
:10292000FF0A04011817DEEF14F001C502F5010ECD
:10293000036E022A9EEF14F0D8900336022E9CEF0D
:1029400014F00350FF0A04012017DEEF14F001C554
:1029500002F5010E036E022AB0EF14F0D890033690
:10296000022EAEEF14F00350FF0A04012817DEEF29
:1029700014F00450026E036A0350000AD8B4C3EF87
:1029800014F0DEEF14F00250410AD8B44DEF14F009
:10299000030AD8B45FEF14F0010AD8B471EF14F051
:1029A000070AD8B483EF14F0010AD8B495EF14F0F5
:1029B000030AD8B4A7EF14F0DEEF14F01200046E8F
:1029C0004EEF15F001C502F5010E036E022AEBEF82
:1029D00014F0D8900336022EE9EF14F00350FF0AEA
:1029E0000401011773EF15F001C502F5010E036E26
:1029F000022AFDEF14F0D8900336022EFBEF14F0FC
:102A00000350FF0A0401091773EF15F001C502F521
:102A1000010E036E022A0FEF15F0D8900336022E36
:102A20000DEF15F00350FF0A0401111773EF15F0B5
:102A300001C502F5010E036E022A21EF15F0D890B0
:102A40000336022E1FEF15F00350FF0A0401191779
:102A500073EF15F001C502F5010E036E022A33EF84
:102A600015F0D8900336022E31EF15F00350FF0A0F
:102A70000401211773EF15F001C502F5010E036E75
:102A8000022A45EF15F0D8900336022E43EF15F0D9
:102A90000350FF0A0401291773EF15F00450026E6A
:102AA000036A0350000AD8B458EF15F073EF15F01D
:102AB0000250410AD8B4E2EF14F0030AD8B4F4EF9C
:102AC00014F0010AD8B406EF15F0070AD8B418EFCD
:102AD00015F0010AD8B42AEF15F0030AD8B43CEF78
:102AE00015F073EF15F01200046EDDEF15F001C55F
:102AF00002F5010E036E022A80EF15F0D89003361E
:102B0000022E7EEF15F003500401041302EF16F0BD
:102B100001C502F5010E036E022A91EF15F0D8905F
:102B20000336022E8FEF15F0035004010C1302EF51
:102B300016F001C502F5010E036E022AA2EF15F090
:102B4000D8900336022EA0EF15F0035004011413A1
:102B500002EF16F001C502F5010E036E022AB3EF73
:102B600015F0D8900336022EB1EF15F00350040192
:102B70001C1302EF16F001C502F5010E036E022AC6
:102B8000C4EF15F0D8900336022EC2EF15F00350B3
:102B90000401241302EF16F001C502F5010E036EC5
:102BA000022AD5EF15F0D8900336022ED3EF15F098
:102BB000035004012C1302EF16F00450026E036A56
:102BC0000350000AD8B4E7EF15F002EF16F00250F8
:102BD000410AD8B477EF15F0030AD8B488EF15F09E
:102BE000010AD8B499EF15F0070AD8B4AAEF15F086
:102BF000010AD8B4BBEF15F0030AD8B4CCEF15F036
:102C000002EF16F01200046E6CEF16F001C502F52B
:102C1000010E036E022A0FEF16F0D8900336022E33
:102C20000DEF16F003500401031391EF16F001C5E8
:102C300002F5010E036E022A20EF16F0D89003363B
:102C4000022E1EEF16F0035004010B1391EF16F045
:102C500001C502F5010E036E022A31EF16F0D8907D
:102C60000336022E2FEF16F003500401131391EFD9
:102C700016F001C502F5010E036E022A42EF16F0AE
:102C8000D8900336022E40EF16F0035004011B13B8
:102C900091EF16F001C502F5010E036E022A53EF03
:102CA00016F0D8900336022E51EF16F003500401AF
:102CB000231391EF16F001C502F5010E036E022AEF
:102CC00064EF16F0D8900336022E62EF16F0035030
:102CD00004012B1391EF16F00450026E036A0350A7
:102CE000000AD8B476EF16F091EF16F00250410AC0
:102CF000D8B406EF16F0030AD8B417EF16F0010A9D
:102D0000D8B428EF16F0070AD8B439EF16F0010A44
:102D1000D8B44AEF16F0030AD8B45BEF16F091EF7F
:102D200016F01200046EFBEF16F001C502F5010E5D
:102D3000036E022A9EEF16F0D8900336022E9CEF07
:102D400016F003500401011320EF17F001C502F53E
:102D5000010E036E022AAFEF16F0D8900336022E52
:102D6000ADEF16F003500401091320EF17F001C571
:102D700002F5010E036E022AC0EF16F0D89003365A
:102D8000022EBEEF16F003500401111320EF17F0CE
:102D900001C502F5010E036E022AD1EF16F0D8909C
:102DA0000336022ECFEF16F003500401191320EF63
:102DB00017F001C502F5010E036E022AE2EF16F0CC
:102DC000D8900336022EE0EF16F0035004012113D1
:102DD00020EF17F001C502F5010E036E022AF3EF92
:102DE00016F0D8900336022EF1EF16F003500401CE
:102DF000291320EF17F00450026E036A0350000AF3
:102E0000D8B405EF17F020EF17F00250410AD8B4FC
:102E100095EF16F0030AD8B4A6EF16F0010AD8B45D
:102E2000B7EF16F0070AD8B4C8EF16F0010AD8B405
:102E3000D9EF16F0030AD8B4EAEF16F020EF17F036
:102E40001200046E8AEF17F001C502F5010E036E41
:102E5000022A2DEF17F0D8900336022E2BEF17F031
:102E60000350FF0AC616AFEF17F001C502F5010EB9
:102E7000036E022A3EEF17F0D8900336022E3CEF85
:102E800017F00350FF0AC716AFEF17F001C502F5A0
:102E9000010E036E022A4FEF17F0D8900336022E70
:102EA0004DEF17F00350FF0AC816AFEF17F001C53A
:102EB00002F5010E036E022A60EF17F0D890033678
:102EC000022E5EEF17F00350FF0AC916AFEF17F09E
:102ED00001C502F5010E036E022A71EF17F0D890BA
:102EE0000336022E6FEF17F00350FF0ACA16AFEF3A
:102EF00017F001C502F5010E036E022A82EF17F0EA
:102F0000D8900336022E80EF17F00350FF0ACB163D
:102F1000AFEF17F00450026E036A0350000AD8B4F2
:102F200094EF17F0AFEF17F00250410AD8B424EF36
:102F300017F0030AD8B435EF17F0010AD8B446EFFA
:102F400017F0070AD8B457EF17F0010AD8B468EFA2
:102F500017F0030AD8B479EF17F0AFEF17F01200AB
:102F6000046E19EF18F001C502F5010E036E022A76
:102F7000BCEF17F0D8900336022EBAEF17F00350CB
:102F8000040102133EEF18F001C502F5010E036EB5
:102F9000022ACDEF17F0D8900336022ECBEF17F0B0
:102FA000035004010A133EEF18F001C502F5010EAB
:102FB000036E022ADEEF17F0D8900336022EDCEF04
:102FC00017F00350040112133EEF18F001C502F58B
:102FD000010E036E022AEFEF17F0D8900336022E8F
:102FE000EDEF17F0035004011A133EEF18F001C57E
:102FF00002F5010E036E022A00EF18F0D890033696
:10300000022EFEEF17F00350040122133EEF18F0DA
:1030100001C502F5010E036E022A11EF18F0D890D7
:103020000336022E0FEF18F0035004012A133EEF6F
:1030300018F00450026E036A0350000AD8B423EF5C
:1030400018F03EEF18F00250410AD8B4B3EF17F071
:10305000030AD8B4C4EF17F0010AD8B4D5EF17F0BB
:10306000070AD8B4E6EF17F0010AD8B4F7EF17F063
:10307000030AD8B408EF18F03EEF18F01200046EFF
:10308000A8EF18F001C502F5010E036E022A4BEFFE
:1030900018F0D8900336022E49EF18F003500401BF
:1030A0000013CDEF18F001C502F5010E036E022AE0
:1030B0005CEF18F0D8900336022E5AEF18F0035048
:1030C00004010813CDEF18F001C502F5010E036EDF
:1030D000022A6DEF18F0D8900336022E6BEF18F02D
:1030E000035004011013CDEF18F001C502F5010ED5
:1030F000036E022A7EEF18F0D8900336022E7CEF82
:1031000018F0035004011813CDEF18F001C502F5B3
:10311000010E036E022A8FEF18F0D8900336022EAC
:103120008DEF18F0035004012013CDEF18F001C506
:1031300002F5010E036E022AA0EF18F0D8900336B4
:10314000022E9EEF18F0035004012813CDEF18F063
:103150000450026E036A0350000AD8B4B2EF18F0AC
:10316000CDEF18F00250410AD8B442EF18F0030A2C
:10317000D8B453EF18F0010AD8B464EF18F0070A76
:10318000D8B475EF18F0010AD8B486EF18F0030A26
:10319000D8B497EF18F0CDEF18F01200046E37EFA7
:1031A00019F001C502F5010E036E022ADAEF18F0DC
:1031B000D8900336022ED8EF18F00350FF0ABE163F
:1031C0005CEF19F001C502F5010E036E022AEBEF68
:1031D00018F0D8900336022EE9EF18F00350FF0ADA
:1031E000BF165CEF19F001C502F5010E036E022A4D
:1031F000FCEF18F0D8900336022EFAEF18F00350C7
:10320000FF0AC0165CEF19F001C502F5010E036E4E
:10321000022A0DEF19F0D8900336022E0BEF19F0A9
:103220000350FF0AC1165CEF19F001C502F5010E4B
:10323000036E022A1EEF19F0D8900336022E1CEFFF
:1032400019F00350FF0AC2165CEF19F001C502F530
:10325000010E036E022A2FEF19F0D8900336022ECA
:103260002DEF19F00350FF0AC3165CEF19F004505C
:10327000026E036A0350000AD8B441EF19F05CEF04
:1032800019F00250410AD8B4D1EF18F0030AD8B4AB
:10329000E2EF18F0010AD8B4F3EF18F0070AD8B437
:1032A00004EF19F0010AD8B415EF19F0030AD8B4E5
:1032B00026EF19F05CEF19F01200090E106463EFAD
:1032C00019F065EF19F067EF19F0E7EF19F020EE4C
:1032D0000EF00E50D9260F50DA22DF50D8A473EF2B
:1032E00019F075EF19F083EF19F010500B0F116EF4
:1032F00011C5F6F4250EF76E000EF86E0800F5C441
:1033000017F59DEF19F020EE0EF00E50D9260F5054
:10331000DA22DE04D8A48FEF19F091EF19F0E7EF6D
:1033200019F01050010F116E11C5F6F4250EF76E4D
:10333000000EF86E0800F5C417F50EC505F50FC5AB
:1033400006F5B5EC1BF0000E186E18C511F5010E50
:10335000126E112AAEEF19F0D8901236112EACEF82
:1033600019F0125017140009D8B4B9EF19F0BBEFD7
:1033700019F0DEEF19F01850020DF3C411F5F4C482
:1033800012F511500E24136E12500F20146E010E00
:103390001324D96E000E1420DA6EDF50016E18501F
:1033A000020DF3C415F5F4C416F515500E24D96EAC
:1033B00016500F20DA6EDF50E8EC19F0182A060ECE
:1033C0001864E5EF19F0E7EF19F0A5EF19F0120016
:1033D000046E4BEF1AF001C502F5010E036E022ACE
:1033E000F4EF19F0D8900336022EF2EF19F00350E3
:1033F000BE1270EF1AF001C502F5010E036E022A2B
:1034000004EF1AF0D8900336022E02EF1AF00350A0
:10341000BF1270EF1AF001C502F5010E036E022A09
:1034200014EF1AF0D8900336022E12EF1AF0035060
:10343000C01270EF1AF001C502F5010E036E022AE8
:1034400024EF1AF0D8900336022E22EF1AF0035020
:10345000C11270EF1AF001C502F5010E036E022AC7
:1034600034EF1AF0D8900336022E32EF1AF00350E0
:10347000C21270EF1AF001C502F5010E036E022AA6
:1034800044EF1AF0D8900336022E42EF1AF00350A0
:10349000C31270EF1AF00450026E036A0350000A60
:1034A000D8B455EF1AF070EF1AF00250410AD8B4B0
:1034B000EBEF19F0030AD8B4FBEF19F0010AD8B406
:1034C0000BEF1AF0070AD8B41BEF1AF0010AD8B4B0
:1034D0002BEF1AF0030AD8B43BEF1AF070EF1AF092
:1034E0001200046ED4EF1AF001C502F5010E036E4E
:1034F000022A7DEF1AF0D8900336022E7BEF1AF0E5
:103500000350C612F9EF1AF001C502F5010E036E61
:10351000022A8DEF1AF0D8900336022E8BEF1AF0A4
:103520000350C712F9EF1AF001C502F5010E036E40
:10353000022A9DEF1AF0D8900336022E9BEF1AF064
:103540000350C812F9EF1AF001C502F5010E036E1F
:10355000022AADEF1AF0D8900336022EABEF1AF024
:103560000350C912F9EF1AF001C502F5010E036EFE
:10357000022ABDEF1AF0D8900336022EBBEF1AF0E4
:103580000350CA12F9EF1AF001C502F5010E036EDD
:10359000022ACDEF1AF0D8900336022ECBEF1AF0A4
:1035A0000350CB12F9EF1AF00450026E036A035075
:1035B000000AD8B4DEEF1AF0F9EF1AF00250410A0F
:1035C000D8B474EF1AF0030AD8B484EF1AF0010AE1
:1035D000D8B494EF1AF0070AD8B4A4EF1AF0010A8D
:1035E000D8B4B4EF1AF0030AD8B4C4EF1AF0F9EF64
:1035F0001AF012000C6E0650D8B401EF1BF003EF66
:103600001BF00AEF1BF005C501F50C5071EC1AF028
:103610000FEF1BF005C501F50C5021EC17F007501A
:10362000D8B415EF1BF017EF1BF01EEF1BF005C50C
:1036300001F50C504AEC14F023EF1BF005C501F521
:103640000C503FEC18F00850D8B429EF1BF02BEFCA
:103650001BF032EF1BF005C501F50C5092EC16F093
:1036600037EF1BF005C501F50C50DFEC14F00950E5
:10367000D8B43DEF1BF03FEF1BF046EF1BF005C544
:1036800001F50C508BEC12F04BEF1BF005C501F56A
:103690000C5074EC15F00A50D8B451EF1BF053EFF6
:1036A0001BF05AEF1BF005C501F50C5003EC16F0AA
:1036B0005FEF1BF005C501F50C5020EC13F00B502B
:1036C000D8B465EF1BF067EF1BF06EEF1BF005C57C
:1036D00001F50C50B5EC13F073EF1BF005C501F5C7
:1036E0000C50B0EC17F01200000E166E1650020DC2
:1036F000F3C410F5F4C411F510500E24126E1150DD
:103700000F20136E010E1224D96E000E1320DA6EF4
:10371000DF50056E000E066E010E076E000E086E7D
:10372000010E096E010E0A6E010E0B6E1650020D8F
:10373000F3C414F5F4C415F514500E24D96E1550C5
:103740000F20DA6EDF50FAEC1AF0162A060E166415
:10375000ACEF1BF0AEEF1BF076EF1BF00EC505F5DE
:103760000FC506F5B5EC1BF01200000E0D6E0D50E6
:10377000020DF3C407F5F4C408F507500524096EDB
:10378000085006200A6E010E0924D96E000E0A2088
:10379000DA6EDF50016E0D50020DF3C40BF5F4C468
:1037A0000CF50B500524D96E0C500620DA6EDF5054
:1037B000CEEC18F00D2A060E0D64E1EF1BF0E3EFDE
:1037C0001BF0B7EF1BF012002AEC1CF0210E0E6E5E
:1037D000050E0F6E74EC1BF0000E206E210E0E6EA7
:1037E000050E0F6E20C510F55DEC19F0520E1F6E20
:1037F0002B0E1E6E000EE82EFED71E2EFCD71F2E9F
:10380000FAD700D0202A090E206409EF1CF00BEF34
:103810001CF0EEEF1BF0ECEF1BF0FEEFFFF0440EA0
:10382000F66E380EF76E000EF86E01EE21F110EE16
:103830000FF00900F5C4EEF4E550E150FAE10001A3
:10384000E4EF1BF0430744014402410441034400F8
:033850004502012D
:08385400300E0001AD6F1200FF
:020000040001F9
:04FFFC000FEF1CF0F7
:020000040030CA
:080000008CFD3FFF9FFFDFFFB5
:01000900FFF7
:00000001FF
