:04000000FEEFFFF020
:10250000003F065B4F666D7D077F670020EE07F09A
:102510000150D9260250DA22DF50D8A492EF12F0EF
:1025200094EF12F0A0EF12F00350010F046E04C5F7
:10253000F6F4250EF76E000EF86E0800F5C406F5E9
:10254000C6EC13F006A0A7EF12F0A9EF12F0BBEF54
:1025500012F001C5D9F402C5DAF4DF50046E010EA1
:10256000056E042AB6EF12F0D8900536042EB4EFAB
:1025700012F00550BE1206A2C0EF12F0C2EF12F028
:10258000D6EF12F020EE01F00150D9260250DA22E7
:10259000DF50046E010E056E042AD1EF12F0D890C0
:1025A0000536042ECFEF12F00550BE1206A4DBEF65
:1025B00012F0DDEF12F0F1EF12F020EE02F0015018
:1025C000D9260250DA22DF50046E010E056E042A6D
:1025D000ECEF12F0D8900536042EEAEF12F0055019
:1025E000C21206A6F6EF12F0F8EF12F00CEF13F09D
:1025F00020EE03F00150D9260250DA22DF50046E9B
:10260000010E056E042A07EF13F0D8900536042E4C
:1026100005EF13F00550C01206A811EF13F013EFE9
:1026200013F027EF13F020EE04F00150D9260250EA
:10263000DA22DF50046E010E056E042A22EF13F039
:10264000D8900536042E20EF13F00550C11206AACB
:102650002CEF13F02EEF13F042EF13F020EE05F005
:102660000150D9260250DA22DF50046E010E056EA9
:10267000042A3DEF13F0D8900536042E3BEF13F0FB
:102680000550C11206AC47EF13F049EF13F05DEFB0
:1026900013F020EE06F00150D9260250DA22DF5066
:1026A000046E010E056E042A58EF13F0D89005361B
:1026B000042E56EF13F00550C112120004010097CA
:1026C0000387049702970197C69600990389049996
:1026D00002990199C69820952385249522952195E4
:1026E000CA94109F138F149F129F119FC89E189118
:1026F0001B811C911A911991C99018931B831C93EB
:102700001A931993C99218951B851C951A951995BA
:10271000C9941200D2EC13F05EEC13F0C6EC13F087
:10272000000E0E6E0F0E016E050E026E0EC503F545
:1027300086EC12F0520E0D6E2B0E0C6E000EE82E73
:10274000FED70C2EFCD70D2EFAD700D00E2A090E7C
:102750000E64ADEF13F0AFEF13F092EF13F090EFC4
:1027600013F0FEEFFFF09C0EF66E270EF76E000ED4
:10277000F86E01EE0FF110EE08F00900F5C4EEF46A
:10278000E550E150FAE100018AEF13F0BE96BE98E1
:10279000C294C09EC190C192C1941200030402076A
:0C27A00000010200300E0001AD6F1200BD
:020000040001F9
:04FFFC00B3EF13F05C
:020000040030CA
:080000008CFD3FFF9FFFDFFFB5
:01000900FFF7
:00000001FF
