:0400000081EF18F084
:022500000000D9
:10300800400C400C400C400C400C400C400C420C56
:10301800420C400C400C400C400C400C400C400C46
:10302800400C400C400C400C400C400C400C400C38
:10303800400C400C400C400C400C400C400C400C28
:10304800400C400C400C400C400C400C400C400C18
:10305800400C400C400C400C400C400C400C400C08
:10306800420C400C400C400C400C400C400C400CF6
:10307800400C400C400C400C400C400C400C400CE8
:10308800400C400C400C400C400C400C400C400CD8
:10309800400C400C400C400C400C400C400C400CC8
:1030A800400C400C400C400C400C400C400C400CB8
:1030B800400C400C400C400C400C400C400C400CA8
:1030C800400C400C400C400C400C400C400C400C98
:1030D800400C400C400C400C400C400C400C400C88
:1030E800400C400C400C400C400C400C400C400C78
:0E30F800400C400C400C400CFF0094EF19F00F
:10310800AFA089EF18F08BEF18F0A1EF18F0020EBE
:10311800026EA00E016E920EE82EFED7012EFCD78D
:10312800022EFAD700D0CFB09CEF18F09EEF18F01F
:10313800A0EF18F0010E0C6EAF90B4A0A6EF18F037
:10314800A8EF18F0D0EF18F0020E026EA00E016E74
:10315800920EE82EFED7012EFCD7022EFAD700D009
:10316800CFA2B9EF18F0BBEF18F0C5EF18F00D506B
:10317800D8A4C1EF18F0C3EF18F0C5EF18F0010E8E
:103188000B6E0D50D8B4CBEF18F0CDEF18F0CFEF91
:1031980018F0000E0D6EB490AEAED5EF18F0D7EF64
:1031A80018F0F2EF18F0020E026EA00E016E920EE9
:1031B800E82EFED7012EFCD7022EFAD700D0D0B4C5
:1031C800E8EF18F0EAEF18F0EEEF18F0010E0A6ECB
:1031D800F0EF18F0000E0A6E040117951100AAEC22
:1031E80019F06BEC19F039EC19F0000E0D6E0C505B
:1031F800D8B401EF19F003EF19F006EF19F0C17018
:10320800000E0C6E0B50D8B40CEF19F00EEF19F03D
:1032180011EF19F0C172000E0B6E0A50D8B417EFF7
:1032280019F019EF19F028EF19F0090E096E1E0EA2
:10323800086EE40EE82EFED7082EFCD7092EFAD722
:1032480000D0C376FBEF18F0520E096E2B0E086EF5
:10325800000EE82EFED7082EFCD7092EFAD700D08C
:10326800C376FBEF18F081EF18F0D68AD68ED68C8D
:10327800040108910B810C910A910981C780D690AD
:10328800AF909F8003016381040108930B830C9323
:103298000A930983C782D682B490A48003016891F7
:1032A800040110951385149512951185C884168507
:1032B800158517959E8E0301628FD69E000E040118
:1032C8005F6F300E5E6F080E5D6FD68E12000401C0
:1032D80028972B872C972A972997CB96C3861891DE
:1032E8001B811C911A911991C990C19018931B8345
:1032F8001C931A831993C992C18208990B890C9956
:103308000A890989C788109913891499128911891A
:10331800C888109B138B149B128B118BC88A1200C0
:103328005C0EF66E330EF76E000EF86E0900F5C4EB
:103338000DF50C6A0B6A0A6A0401080E5D6F300EFF
:103348005E6F000E5F6F0001F3EF18F0300E0001A2
:05335800AD6F12000141
:020000040030CA
:080000008CFD3FFF9FFFDFFFB5
:01000900FFF7
:00000001FF
