:04000000FEEFFFF020
:102500000000066EB7EF12F00650D1EC12F0000991
:10251000D8B48DEF12F08FEF12F092EF12F0C39655
:10252000D0EF12F0C386D0EF12F00650D1EC12F0CB
:102530000009D8B49EEF12F0A0EF12F0A3EF12F052
:10254000C180D0EF12F0C190D0EF12F00650D1EC64
:1025500012F00009D8B4AFEF12F0B1EF12F0B4EFFF
:1025600012F0C182D0EF12F0C192D0EF12F00650FB
:10257000046E056A0550000AD8B4C1EF12F0D0EF1E
:1025800012F00450000AD8B484EF12F0010AD8B453
:1025900095EF12F0030AD8B4A6EF12F0D0EF12F0C4
:1025A0001200036EF8EF12F0CFA8D9EF12F0DCEFB3
:1025B00012F0010EDDEF12F0000E11EF13F0D0A8B3
:1025C000E4EF12F0E7EF12F0010EE8EF12F0000E68
:1025D00011EF13F0D0AAEFEF12F0F2EF12F0010EAC
:1025E000F3EF12F0000E11EF13F0000E11EF13F0E5
:1025F0000350016E026A0250000AD8B402EF13F0D1
:10260000F5EF12F00150000AD8B4D4EF12F0010A2D
:10261000D8B4DFEF12F0030AD8B4EAEF12F0F5EF06
:1026200012F01200040128972B872C972A972997DC
:10263000CB9618911B811C911A911991C9901893EE
:102640001B831C931A831993C99208990B890C99BF
:102650000A890989C78810991389149912891189DF
:10266000C888109B138B149B128B118BC88A120085
:1026700049EC13F012EC13F0000E81EC12F0010E95
:1026800081EC12F0020E81EC12F03CEF13F0FEEF41
:10269000FFF0300E0001AD6F1200000138EF13F0B3
:020000040001F9
:04FFFC004DEF13F0C2
:020000040030CA
:080000008CFD3FFF9FFFDFFFB5
:01000900FFF7
:00000001FF
